:020000040800F2
:100000006F000018BA480008BA4800080C450008FC
:10001000BA480008BA480008BA480008BC460008B8
:10002000BA480008BA480008BA480008BA480008A8
:10003000BA480008BA480008BA480008BA48000898
:10004000BA480008000000000000000000000000A6
:1000500000000000000000000000000000000000A0
:10006000000000000490000834900008649000082C
:1000700094900008C49000080000000000000000F8
:100080000000000000000000000000000000000070
:100090000000000000000000000000000000000060
:1000A0000000000000000000F490000800000000C4
:1000B0000000000000000000000000000000000040
:1000C0000000000000000000000000000000000030
:1000D0000000000000000000000000000000000020
:1000E000989200080000000000000000B091000895
:1000F0000000000000000000BA480008BA480008EC
:10010000BA480008BA480008BA48000800000000D1
:10011000BA480008000000000000000000000000D5
:1001200000000000000000000000000000000000CF
:1001300000000000000000000000000000000000BF
:10014000BA480008BA48000800000000000000009B
:10015000000000000000000000000000000000009F
:10016000000000000000000000000000000000008F
:10017000000000000000000000000000000000007F
:1001800073700430170500001305C5FF8545F6059B
:10019000637BB50089816378B500170500001305FE
:1001A000C5002E950285971100189381A19817021A
:1001B000001813022219175100181301A1E4930229
:1001C000002073A0027D970200009382A2E3739047
:1001D0007230974200009382E2667390C27E73E0B1
:1001E000C07E970200009382E20D7390523093021A
:1001F000F00373B0523073E0513073F002321705E0
:1002000000001305650F970500009385E50E630058
:10021000B502171601001306A69863FAC5008322DB
:10022000050023A0550011059105E3EAC5FE171549
:1002300001001305E596970500189385A5DC1706C0
:1002400000181306261063FAC5008322050023A0B8
:10025000550011059105E3EAC5FE170500181305C1
:10026000650E938581C56377B500232005001105D0
:10027000E36DB5FEEF80C02F179500001305054F05
:10028000EF90C04DEF90A051EF8080619742000049
:1002900093824253739052309302F00373B0523002
:1002A00073E0513001458145A128EF80A06901A08C
:1002B00013000000130000001300000013000000F2
:1002C00073005010F5BF00000000000000000000A7
:1002D000000000000000000000000000000000001E
:1002E000000000000000000000000000000000000E
:0402F000000000000A
:1003000041119547654793060020014697950000E7
:1003100093858504170501001305450D06C6EF30CA
:10032000700D19C1EF30C079B240014541018280A2
:1003300000000000170500180325C500828000009A
:1003400017070018130707001C43411106C685074D
:100350001CC3EF3060767C4DFD177CCD91C7B24059
:1003600041016F30B07A01003C4D7CCDEF309018E8
:10037000B24041016F30907900000000634D0500EC
:10038000930740063305F5029307803E1305753E3B
:100390003345F50282807D558280000001458280D0
:1003A00000000000014582800000000001458280BD
:1003B0000000000001458280000000005DC50111C1
:1003C0004EC652C456C206CE22CC26CA4AC8AA8AF3
:1003D000AE89328AEF30406E19C1EF30203E2145A0
:1003E000EF2010622A892DC50324490011096316E4
:1003F0002401B9A0004063052405930444FF21466D
:10040000CE852685EF00904E75F5EF30E06A19C174
:10041000EF30C03C85EC56854E86A145EF20106636
:100420000145239C4A01238E0A00239D0A00F240C5
:100430006244D2444249B249224A924A05618280CA
:10044000EF30806769D9EF306039F1B77D55C5B7B6
:100450001306A00897E500009385051617E5000030
:1004600013054502EF20C07341B77D55828000001F
:1004700001114EC606CE22CC26CA4AC8AA89EF3040
:10048000A06319C1EF3080332145EF2070572A89CE
:1004900031C50324490011096317240115A801007F
:1004A000004063072403930444FF2146CE8526853C
:1004B000EF00D04375F5EF30206019C1EF30003206
:1004C000F24062444249B2492685D24405618280A5
:1004D000EF30805EAA846DD58144CDB71306A008A5
:1004E00097E500009385450D17E50000130585F994
:1004F000EF20006B79BF0000411122C44AC006C63C
:1005000026C22A842E8961C12285EF306009A14765
:10051000630EF5001306301097E500009385C508BB
:1005200017E50000130585F8EF20806783578401E5
:1005300013F7070109EF1C5489C722858297AA8403
:1005400045E18357840193E70701231CF400A18B45
:1005500095E35C54B5C3CA8522858297AA840DC1F0
:10056000E957630FF500B2402244024926859244C0
:10057000410182808357A401A18BE1DFE554E5B7F7
:100580008355A4018347C40193E58500231DB4006E
:10059000850793F7F70F230EF400F1F713061013F6
:1005A00097E500009385450017E500001305C5F9A0
:1005B000EF20005F4DBF010085659385F5F0814414
:1005C000B375B900C1B71306201097E500009385F5
:1005D000A5FD17E50000130565ECEF20605C2DB765
:1005E0002A86A28517E50000130585F2EF20C04793
:1005F0009DBF0000411122C406C62A842DC1228558
:10060000EF20107AA147630EF5001306401497E51A
:100610000000938565F817E50000130525E9EF2034
:1006200020588347C401A9CBFD1793F7F70F230E7A
:10063000F4008DE31C5889CF2285829711C9E957B0
:100640006314F500231D0400B2402244410182805E
:100650000145CDBFB24022440145410182801306CD
:10066000301497E50000938525F317E50000130586
:10067000E5E2EF20E05261B77D55F9B7011122CCD8
:1006800026CA4AC84EC606CE2A84AE843289B689A6
:1006900025C12285EF20D070A147630EF500130617
:1006A000E01697E50000938525EE17E50000130599
:1006B000E5DFEF20E04E8347C40185CB5C5881CF56
:1006C00022856244F240CE864A86B2494249A685D6
:1006D000D244056182876955B129F2406244D2440F
:1006E0004249B2490145056182807D55A121F5B796
:1006F0001306D01697E50000938505E917E500007D
:100700001305C5D9EF20C04969B70000011122CCFB
:1007100026CA4AC84EC606CE2A84AE843289B68915
:1007200025C12285EF20D067A147630EF50013068F
:10073000501997E50000938525E417E5000013059F
:10074000E5D6EF20E0458347C40185CB1C5C81CF13
:1007500022856244F240CE864A86B2494249A68545
:10076000D244056182876955F126F2406244D24441
:100770004249B2490145056182807D55652EF5B734
:100780001306401997E50000938505DF17E5000083
:100790001305C5D0EF20C04069B70000411122C445
:1007A00026C206C62A84AE8415C92285EF20505F72
:1007B000A147630EF5001306001D97E50000938521
:1007C000E5D917E50000130565CEEF20603D04D0A4
:1007D000B240224492440145410182801306F01C3C
:1007E00097E50000938585D717E50000130505CB35
:1007F000EF20003B5DBF0000011122CC26CA4AC891
:100800004EC606CE2A84AE893289B68415C52285A5
:100810004E868545EF20902693074401A30494005B
:10082000231E2401F2401CCC5CC86244D2444249DD
:10083000B2490145056182801306800D97E50000ED
:100840009385C5E817E50000130505D8EF2040356E
:100850007DBF0000797122D406D626D24AD04ECE72
:1008600052CC2EC62A84630105162285EF205053F0
:100870008547630EF5001306501597E50000938534
:1008800025E417E50000130525D5EF20603183A787
:10089000018699C322858297EF30D06F8357C401B8
:1008A0002A8963990710B24763840716EF30906E68
:1008B000AA84EF30602063060512EF30B06DAA897C
:1008C000A52469E14E85EF30706D2685EF30106DFF
:1008D000EF30801E23280502034A9400AA8493095E
:1008E0004401EF30205A63030A0885476316FA0271
:1008F0005C48638DF90683C6540321A09C4363873B
:10090000F90603C71702E3FBE6FED443138744014D
:1009100098C294CCD8C3DCC8B2476347F0024A857A
:10092000EF30D067EF20504B885819E583A7C18579
:10093000D1CB228582970145B2502254925402595C
:10094000F249624A456182809389040670008145BC
:100950004E85EF30B0114E85EF3040784A85EF304C
:10096000F063EF207047885871D1F9B7184C93871E
:1009700044011CC398CC1CCCB24723AA3401E350D9
:10098000F0FAD9B797E50000938585D317E5000005
:10099000130505CCEF20400D1306501797E5000016
:1009A000938505D217E500001305050CEF20401FC5
:1009B00011BF0100FD17231EF400EF30305E83A746
:1009C000C185A5FB01458DBF1306401597E50000C5
:1009D000938505CF17E50000130505BFEF20401CE8
:1009E00069B597E500009385A5CD17E500001305CF
:1009F000A5C8EF2060071306501797E50000938500
:100A000025CC17E5000013052506EF20601975B504
:100A1000EF30D05879550DB700000000411122C4C5
:100A200006C626C22A8425CD2285EF207037854749
:100A3000630EF5001306201C97E50000938545C75B
:100A400017E50000130545B9EF20801583A78185C0
:100A500099C322858297EF30F05358489307440199
:100A6000AA846301F7021305C7FEEF30E04B268529
:100A7000EF30D052EF205036B2402244924401452C
:100A8000410182808357C4018507231EF400EF30A3
:100A9000F050B24022449244014541018280130645
:100AA000101C97E500009385A5C017E5000013050D
:100AB000A5B1EF20E00E8DBF411122C406C6EF3074
:100AC000704D9707001883C7A78885071707001878
:100AD0002300F7889707001883A707872A8491C304
:100AE000829722852244B24041016F30304B000092
:100AF000411122C406C6EF30F0499707001883C79A
:100B00002785FD17170700182304F7849707001897
:100B100083A7C7832A8491C3829722852244B24047
:100B200041016F30B04700001705001803454582AA
:100B300082800000411122C406C62A84F53709C903
:100B4000B2409707001823A7878022444101828082
:100B5000EF20907675D5B24000D9224441018280C1
:100B6000000000008D4863F7C81093773500639943
:100B7000071893F7F50F13978700D98F139707017D
:100B8000BD465D8F63FFC618130806FF137808FF84
:100B9000C2869182850641089D8AAA872A98B5C295
:100BA000054363896604094363816604638A160307
:100BB0009148638216039548638A16019948639B9E
:100BC000161598C3D8C398C7D8C7C10798C3D8C348
:100BD00098C7D8C7C10798C3D8C398C7D8C7C10793
:100BE00098C3D8C398C7D8C7C10798C3D8C398C7F4
:100BF000D8C7C10798C3D8C398C7D8C7C107630669
:100C0000F80498C3D8C398C7D8C798CBD8CB98CF87
:100C1000D8CF98D3D8D398D7D8D798DBD8DB98DF5C
:100C2000D8DFB8C3F8C3B8C7F8C7B8CBF8CBB8CFCC
:100C3000F8CFB8D3F8D3B8D7F8D7B8DBF8DBB8DF3C
:100C4000F8DF93870708E31EF8FA9376C6003D8A1B
:100C50009DC298C39306C6FF0D486378D800D8C3D9
:100C6000930886FF6373180198C7F19A9106B697A7
:100C70000D8A11A0AA871307F6FF41CE05079376C8
:100C8000770093F5F50F3E97B9C605466380C60415
:100C90000946638AC6020D466384C6021146638E06
:100CA000C60015466388C6001946639FC6042380A4
:100CB000B70085072380B70085072380B700850725
:100CC0002380B70085072380B70085078507A38F9A
:100CD000B7FE638FE7022380B700A380B7002381AC
:100CE000B700A381B7002382B700A382B700238394
:100CF000B700A383B700A107E39FE7FC8280010050
:100D0000AA871307F6FF9DBF2380B700850745B765
:100D10008280828018C158C118C59307050158C543
:100D20004DB5AA873DB7000063F6A500B387C5009F
:100D3000636DF50C6300061A13777600AA872A966E
:100D400041C385466306D7068946630DD7048D46A1
:100D50006304D7049146630BD70295466302D7021A
:100D600099466309D70003C7050093071500850559
:100D70002300E50003C7050085078505A38FE7FE6F
:100D800003C7050085078505A38FE7FE03C7050098
:100D900085078505A38FE7FE03C705008507850541
:100DA000A38FE7FE03C7050085078505A38FE7FE30
:100DB00003C7050085078505A38FE7FE638BC71072
:100DC00003C70500A105A107238CE7FE03C795FF14
:100DD000A38CE7FE03C7A5FF238DE7FE03C7B5FF7E
:100DE000A38DE7FE03C7C5FF238EE7FE03C7D5FF2C
:100DF000A38EE7FE03C7E5FF238FE7FE03C7F5FFDA
:100E0000A38FE7FEE39EC7FA82803307C5006DDE3D
:100E1000B306A7409D8AADCA0546638FC60409463E
:100E20006386C6040D46638DC60211466384C602FE
:100E30001546638BC6001946639FC60883C6F7FF35
:100E40007D17FD172300D70083C6F7FF7D17FD1719
:100E50002300D70083C6F7FF7D17FD172300D700B7
:100E600083C6F7FF7D17FD172300D70083C6F7FF62
:100E70007D17FD172300D70083C6F7FF7D17FD17E9
:100E80002300D7006300E50683C6F7FFE11761176B
:100E9000A303D70083C667002303D70083C6570088
:100EA000A302D70083C647002302D70083C63700BA
:100EB000A301D70083C627002301D70083C61700EC
:100EC000A300D70083C607002300D700E31EE5FA7E
:100ED00082808280828083C6F7FF7D17FD17230002
:100EE000D700A9BF8280000063080616137776003A
:100EF000AA871308F6FF45CB8546630BD7088946BA
:100F0000630FD7068D466303D70691466307D70460
:100F10009546630AD7029946630DD70083C605003C
:100F2000930715008505A38FD7FE2A8763880612CD
:100F3000428683C605003E8785052380D700850746
:100F4000638E06107D1683C605003E8785052380C7
:100F5000D7008507638406107D1683C605003E878B
:100F600085052380D7008507F5CA7D1683C6050051
:100F70003E8785052380D7008507EDC27D1683C691
:100F800005003E8785052380D7008507E1CA7D16C9
:100F900083C605003E8785052380D7008507DDCE03
:100FA0007D166304061403C805003E878507A38FDA
:100FB00007FFBE866304080A83C815003E877D16B6
:100FC0002380170185073288638A080883C82500B3
:100FD0003E877D16A380160193872600638008084C
:100FE00083C835003E871306E8FF238116019387E7
:100FF00036006385080683C845003E871306D8FF80
:10100000A381160193874600638A080483C85500AC
:101010003E871306C8FF2382160193875600638F0D
:10102000080283C865003E87A105A3821601938745
:1010300066001306B8FF6383080283C8F5FF3E8786
:101040001306A8FF238316019387760063880800A0
:10105000130698FF29FA8280828001009306F6FF2A
:10106000E5DE3A963307F6401D8B39C785466300A7
:10107000D7048946630AD7028D466304D702914696
:10108000630ED70095466308D7009946631AD704C4
:10109000238007008507238007008507238007003A
:1010A00085072380070085072380070085078507BC
:1010B000A38F07FE638AC70223800700A38007006F
:1010C00023810700A381070023820700A382070072
:1010D00023830700A3830700A107E39FC7FC828047
:1010E0002380070085076DB7828082806300061821
:1010F000937776002A96F9C305476383E70A094781
:101100006384E7080D476385E70611476384E704B6
:1011100015476383E7021947639EE71483C70500F9
:10112000034705008505B307F740E207E1876391B0
:1011300007140505630C071283C705000347050064
:101140008505B307F740E207E187639307120505BA
:10115000630E071083C70500034705008505B30725
:10116000F740E207E1876395071005056300071064
:1011700083C70500034705008505B307F740E2076D
:10118000E187FDE705057DC383C70500034705002B
:101190008505B307F740E207E187F9EB050579C755
:1011A0000347050083C705008505B307F740E2073D
:1011B000E187DDEF05055DCB630AC50A83460500BF
:1011C00083C7050013871500B387F640E207E18760
:1011D000C5E313081500D9CA8346150083C7150057
:1011E000B387F640E207E187C1E7C9C2834625001D
:1011F00083C72500B387F640E207E187B5EBBDC69C
:101200008346350083C73500B387F640E207E187A0
:10121000A5E3A9CE8346450083C74500B387F640C2
:10122000E207E187B1E7B9C283465500834747002B
:10123000B387F640E207E18785EF8DCA8346580001
:1012400083475700B387F640E207E18795E399CEDD
:101250009305770083C7F5FF03476800B307F7409E
:10126000E207E18791E71305780039F701458280AD
:101270003E85828083C70500034705008505B307C7
:10128000F740E207E187EDF70505E31907E8F9BF45
:1012900083470500A1CFAA8783C6170085073E872D
:1012A000B9C283C6170085079DCE834627009307E2
:1012B000270095CA83463700930737008DC68346BB
:1012C00047009307470085C283465700930757009E
:1012D00099CA834667009307670091C683467700E3
:1012E00093077700D5FA3385A7408280AA87E5BFA8
:1012F00000000000FD153308B5006373A8007D5899
:1013000003430600631403006F100059B797980059
:101310005D719387F7673EC4B7E7F5059387F70FCD
:1013200056DC5ADA5ED862D6896B416C616BB74A7B
:101330000F003EC6B7D79A3B6ED0A2C6A6C4CAC29B
:10134000CEC052DE66D46AD22A879305B0029308D3
:101350000002930E3002130F000397D30000938313
:1013600023387D1C938BFB70130BFB69938AFA2344
:10137000938DF79F31A801006364E80023006700A4
:10138000B287050703C31700138617006309030C10
:1013900093075002E312F3FE03431600130ED0022C
:1013A000814F930716006305C30301006306B30270
:1013B00063081303630AD303631CE30393EF1F0063
:1013C0003E8601000343160093071600E310C3FF97
:1013D00093EF0F013E86FDB793EF4F003E86DDB7DA
:1013E00093EF8F003E86F9BF93EF0F023E86D9BF81
:1013F000130403FDA5421A8E63FA820A130EA0029B
:101400006302C31B7D591306E002630EC3067D5EB3
:101410001376B30F93028006630256021304500240
:101420008142130683FA630683021376F60F63E59F
:10143000C8180A061E9610421E96028603C617009A
:101440009A821304500232838507130683FAE31E3F
:1014500083FC6364E80023006700050725B7E37099
:10146000E87E230008003644A64416498649725A8D
:10147000E25A525BC25B325CA25C125D825D330554
:10148000A7406161828003C61700254E13841700B0
:10149000930206FD3283E37A5E7E1306A002631494
:1014A000C3006F10600FA287014E9DB7014925440C
:1014B0001316290003C3170032990609850772998C
:1014C000130E03FD3E86130909FDE36EC4F3131EDC
:1014D0002900729906091A99130909FD03C3170017
:1014E000131E29004A9E060E930203FD85071A9ECD
:1014F000E36B54F00343260013090EFD131E29006D
:101500004A9E060E930203FD930726001A9EE36C83
:1015100054EE0343360013090EFD131E29004A9EA4
:10152000060E930203FD930736001A9EE36D54ECFA
:101530000343460013090EFD131E29004A9E060EA2
:10154000930203FD930746001A9EE36E54EA034399
:10155000560013090EFD131E29004A9E060E930223
:1015600003FD930756001A9EE36F54E813090EFD1E
:1015700003436600131E29004A9E93121E00130E99
:1015800003FD93076600E360C4E9034E76001693FB
:101590009307760013060EFD130903FD7283E379AA
:1015A000C4F095B503A9060093072600910663478A
:1015B00009020343260081BD6366E800130650025A
:1015C0002300C70003C6070013031700E30D067EC0
:1015D00063646800A300C70009076DB303432600D6
:1015E0003309204193EF0F0139BDA94993EF2F0033
:1015F0001306C006E387C2661306800603AA060028
:10160000E386C266910613F60F045283FE82E3124C
:10161000066217D600001306263213F40F01E30208
:10162000046093F2EFFF1304000293FF2200E38DA6
:101630000F06E3470A6493FF4200E3990F7693FF96
:101640008200E3830F0693040002E3120A06854F2B
:101650002308E1016353FE017E8E93F912013306E4
:10166000C941E390091EE38D040EE354C05A1309E7
:10167000F6FF930CE6FF631409006F1080394A8669
:101680006F00900E93FF0F0163940F006F108002A4
:101690004A86938F46006365E80094422300D70092
:1016A000054E09448D42130317006344CE006F10AA
:1016B000E01D3297B30667409D8AADC6638DC605AF
:1016C00063868604638F560211466387C6021546F9
:1016D000638FC60019466387C600636468002300F1
:1016E00013010503636468002300130105036364A9
:1016F00068002300130105036364680023001301DD
:101700000503636468002300130105036364680034
:10171000230013010503636468002300130105031C
:101720006304E30663646800230013019306130057
:101730006364D800A3001301138616006364C80015
:10174000A3801601138626006364C8002381160156
:10175000138636006364C800A38116011386460011
:101760006364C80023821601138656006364C800B0
:10177000A3821601138666006364C80023831601E2
:1017800013837600E310E3FAFE86EDBEC14993EFC2
:101790000F04B9BDA949A9BD83A206009106E3853E
:1017A000027003C6020019E26F10802216860344FD
:1017B00016000506328339C00344160005061DCC09
:1017C000034423001306230015C803443300130603
:1017D00033000DC4034443001306430005C0034413
:1017E00053001306530019C8034463001306630033
:1017F00011C4034473001306730055F81684B282B3
:10180000B38282406355C00163535E00F28293FF4E
:101810000F0163940F006F10000A4A8E635F500E31
:10182000636CE80E9384F2FFBA9463739800C284E9
:1018300003430400B38FE44013061700230067003E
:1018400093FF7F001303140063E8C40C63820F0846
:10185000054963872F070949638E2F050D49638565
:101860002F051149638C2F03154963832F031949F1
:10187000638A2F01834F0300130324002300F60122
:1018800013062700834F030005060503A30FF6FF89
:10189000834F030005060503A30FF6FF834F0300E4
:1018A00005060503A30FF6FF834F03000506050396
:1018B000A30FF6FF834F030005060503A30FF6FFF2
:1018C000834F030005060503A30FF6FF63E6C40478
:1018D000834F030021062103230CF6FF834F93FF60
:1018E000A30CF6FF834FA3FF230DF6FF834FB3FF37
:1018F000A30DF6FF834FC3FF230EF6FF834FD3FFE5
:10190000A30EF6FF834FE3FF230FF6FF834FF3FF92
:10191000A30FF6FFE3FEC4FA1697E3D5C2A733037D
:101920005E40137673008542894F0D4E3A932DC663
:10193000630D56046306F605630FC603114E630775
:10194000C603154E630FC601194E6307C6016364D3
:10195000E8002300170105076364E800230017016E
:1019600005076364E8002300170105076364E800C6
:101970002300170105076364E8002300170105072A
:101980006364E8002300170105076364E80023008F
:1019900017010507E308679E6364E8002300170149
:1019A000130617006364C800A3001701130716008D
:1019B0006364E800A3001601130726006364E800CF
:1019C00023011601130736006364E800A301160122
:1019D000130746006364E80023021601130756004C
:1019E0006364E800A3021601130766006364E8005D
:1019F0002303160113077600E31067FA61B27D56E0
:101A0000E30DC93C13F30F0190429106E310033E2E
:101A100013F31F00631403006F10A00213040003EC
:101A2000E31C063C05432308E10163536E001A8E54
:101A300093F21F013306C941E39402669374760062
:101A4000854C094A8D499302F6FF635CC00C33094B
:101A5000C700ADC4638D940563864405638F34036A
:101A600011466387C4021546638FC4001946638715
:101A7000C4006364E8002300170105076364E800FD
:101A80002300170105076364E80023001701050719
:101A90006364E8002300170105076364E80023007E
:101AA000170105076364E800230017010507636455
:101AB000E800230017010507630427076364E800B3
:101AC00023001701130617006364C800A300170161
:101AD000130716006364E800A3001601130726002D
:101AE0006364E80023011601130736006364E8000D
:101AF000A3011601130746006364E80023021601E0
:101B0000130756006364E800A3021601130766007A
:101B10006364E8002303160113077600E31027FB34
:101B2000FD5293FF0F0163940F0E13F67200854967
:101B300009498D44938FF2FFE356506CBA922DC63B
:101B4000630D360563062605630F9602914F630702
:101B5000F603954F630FF601994F6307F60163642F
:101B6000E8002300870005076364E800230087007E
:101B700005076364E8002300870005076364E80045
:101B80002300870005076364E8002300870005073A
:101B90006364E8002300870005076364E80023000E
:101BA00087000507630457066364E8002300870085
:101BB000130617006364C800A3008700130716000C
:101BC0006364E800A3008600130726006364E8004E
:101BD00023018600130736006364E800A301860032
:101BE000130746006364E8002302860013075600CB
:101BF0006364E800A3028600130766006364E800DC
:101C00002303860013077600E31057FAFD52635151
:101C1000C30F330E6E4013767E00854409448D4F0A
:101C20003A9E2DC6630D960463068604630FF60381
:101C3000914F6307F603954F630FF601994F6307C2
:101C4000F6016364E8002300E70105076364E80028
:101C50002300E70105076364E8002300E7010507A7
:101C60006364E8002300E70105076364E8002300DC
:101C7000E70105076364E8002300E70105076364E3
:101C8000E8002300E70105076304C7076364E80071
:101C90002300E701130617006364C800A300E701EF
:101CA000130716006364E800A300E601130726008B
:101CB0006364E8002301E601130736006364E8006B
:101CC000A301E601130746006364E8002302E6016E
:101CD000130756006364E800A302E60113076600D9
:101CE0006364E8002303E60113077600E310C7FBF3
:101CF0001306F3FF6369E8000010330EC400034EBF
:101D00000EFF2300C701930F1700130EE3FF55CA00
:101D10006368F80110107296034606FFA300C7001F
:101D200013062700930FD3FF635DC0096368C800E3
:101D300010107E96034606FF2301C700130E3700DE
:101D40001306C3FF635FF0076369C8010010330E19
:101D5000C400034E0EFFA301C701930F4700130EEB
:101D6000B3FF6350C0066368F80110107296034613
:101D700006FF2302C700930F57001306A3FF635209
:101D8000C0056369F8010010330EC400034E0EFF56
:101D9000A302C701930F6700130E93FF6353C002A2
:101DA0006368F80110107296034606FF2303C7000C
:101DB0000544930F7700130683FF63148E00E37DC1
:101DC000F83F13F672000544894F0D4E1A97635B76
:101DD00050DABA922DC6630D86046306F605630FCA
:101DE000C6031143630766021543630F6600194378
:101DF000630766006364E800230017010507636456
:101E0000E8002300170105076364E80023001701B9
:101E100005076364E8002300170105076364E80011
:101E20002300170105076364E80023001701050775
:101E30006364E800230017010507630557D4636452
:101E4000E80023001701130617006364C800A3000D
:101E50001701130716006364E800A30016011307B7
:101E600026006364E800230116011307360063644B
:101E7000E800A3011601130746006364E80023028B
:101E80001601130756006364E800A3021601130746
:101E900066006364E8002303160113077600E3106D
:101EA00057FA6FF02FCE0100814463020AFAA94F5E
:101EB000E38AF90F937FF300B29F03CA0F0093598F
:101EC000430093FFF90023084101B29FE38D091CF1
:101ED00003CA0F009359830093FFF900A30841013F
:101EE000B29FE386091C03CA0F009359C30093FFF6
:101EF000F90023094101B29FE38C092A03CA0F00AC
:101F00009359030193FFF900A3094101B29FE38CA8
:101F1000092C03CA0F009359430193FFF900230AC8
:101F20004101B29FE382092A03CA0F00935983013A
:101F300093FFF900A30A4101B29FE38A092A83CFE4
:101F40000F001353C3011A96230BF101E305032A73
:101F5000034606001D43A14FA30BC1006FF08FEF96
:101F6000930CF6FFE35DC02813797600054A094D0E
:101F7000B309C70063030906630C49056305A90596
:101F80000D4A630D4903114A63054903154A630D60
:101F90004901194A63054901E37FE82205076364A3
:101FA000E8002300170105076364E8002300170118
:101FB00005076364E8002300170105076364E80070
:101FC0002300170105076364E800230017010507D4
:101FD000637BE85C0507630437076364E80023005C
:101FE00017011309170063642801A30017011307E1
:101FF00019006364E800A300190113072900636452
:10200000E80023011901130739006364E800A30104
:102010001901130749006364E8002302190113073B
:1020200059006364E800A30219011307690063649F
:10203000E8002303190113077900E31037FB338607
:10204000CC406399043C93F202016395020E9372B3
:102050007600854409498D49130AF6FFE357C014F9
:102060003A9663860206638D920463862205638F27
:1020700032039144638792029544638F920099449E
:10208000638792006364E8002300870005076364A8
:10209000E8002300870005076364E8002300870049
:1020A00005076364E8002300870005076364E80010
:1020B0002300870005076364E80023008700050705
:1020C0006364E8002300870005076304C7066364B0
:1020D000E800230087009302170063645800A30000
:1020E0008700138712006364E800A38082001387CF
:1020F00022006364E8002381820013873200636456
:10210000E800A3818200138742006364E800238211
:102110008200138752006364E800A3828200138761
:1021200062006364E8002383820013877200E31077
:10213000C7FA7D5663D0CF77330EFE4193727E008F
:10214000854F09448D443A9E63860206638DF205ED
:1021500063868204638F9202914F6387F203954FE7
:10216000638FF201994F6387F2016364E8002300F3
:10217000E70105076364E8002300E70105076364DE
:10218000E8002300E70105076364E8002300E70196
:1021900005076364E8002300E70105076364E800BE
:1021A0002300E70105076364E8002300E701050752
:1021B0006304C7076364E8002300E701930F170077
:1021C0006364F801A300E70113871F006364E8005C
:1021D000A380EF0113872F006364E8002381EF01E0
:1021E00013873F006364E800A381EF0113874F006A
:1021F0006364E8002382EF0113875F006364E800F3
:10220000A382EF0113876F006364E8002383EF016B
:1022100013877F00E310C7FB6368C80118101A9783
:10222000034707FF2300EE00930F1E001307F3FF81
:10223000630A030E6369F8010010B30FE40083CF53
:102240000FFFA300FE0193022E00930FE3FF635BD9
:10225000E00C6368580018107E97034707FF2301BE
:10226000EE0093023E001307D3FF635DF00B63693A
:1022700058000010B30FE40083CF0FFFA301FE014D
:1022800093024E00930FC3FF635EE008636858003B
:1022900018107E97034707FF2302EE0093025E00AB
:1022A0001307B3FF6350F009636958000010B30FC0
:1022B000E40083CF0FFFA302FE0193026E00930F91
:1022C000A3FF6351E0066368580018107E97034728
:1022D00007FF2303EE0093027E00130793FF63536F
:1022E000F005636958000010B30FE40083CF0FFFBF
:1022F000A303FE0193028E00930F83FF6354E00259
:102300006368580018107E97034707FF2304EE0008
:10231000054713049E00930273FF6395EF006376F5
:10232000882601000503937F7600854209448D4489
:102330007293635EC0543307C30063880F06638DD6
:102340005F0463868F04638F9F0211466387CF0209
:102350001546638FCF0019466387CF00636468001A
:1023600023001301050363646800230013010503C0
:10237000636468002300130105036364680023009D
:1023800013010503636468002300130105036364FC
:102390006800230013010503636468002300130130
:1023A00005036314E3006FE0FFFD6364680023002E
:1023B0001301130613006364C800A3001301130381
:1023C000160063646800A30016011303260063640B
:1023D0006800230116011303360063646800A3013B
:1023E00016011303460063646800230216011303F9
:1023F000560063646800A302160113036600636459
:1024000068002303160113037600E310E3FA6FE07C
:102410007FF77D166365E800230097007D160507AA
:102420001DB193FF1F0063820F62130400036FF05E
:10243000CF9F17C600001306E64E6FF00F9E2300D5
:1024400007003644A64416498649725AE25A525B3E
:10245000C25B325CA25C125D825D3305A7406161A4
:10246000828003AA060091066FF0EF9913F62F0001
:10247000910663060614420A135A0A416FF0AF9898
:102480009304D002330340411DB4A287014EA542FC
:1024900013132E0083C417001A9E060E8507329E62
:1024A000138604FD3E83130E0EFD63EAC20C131661
:1024B0002E0003C41700329E060E269E130604FD4E
:1024C0008507130E0EFD63ECC20A93172E00034618
:1024D00023003E9E060E229E130406FD9307230052
:1024E000130E0EFD63ED820893172E000344330094
:1024F0003E9E060E329E130604FD93073300130E14
:102500000EFD63EEC20693172E00834443003E9EE9
:10251000060E229E138604FD93074300130E0EFD44
:1025200063EFC20493172E00034653003E9E060E2F
:10253000269E130406FD93075300130E0EFD63E061
:10254000820493172E00034463003E9E060E329EC3
:10255000130604FD93076300130E0EFD63E1C20230
:1025600093172E00034673003E9E060E229E130410
:1025700006FD93077300130E0EFDE3FB82F0634B21
:102580000E0203C307006FE0BFE81810BA9203C73A
:1025900002FFA304EE0079B303AE0600890791069B
:1025A000E3510EFE01A8230017012DB49304B002DD
:1025B0006FF0AF8903C30700014E6FE07FE5337A08
:1025C0008A016FF04F841A87FD176FE0BFDBA149C6
:1025D0006FF00F82C1496FF0AF8113F30F0190428A
:1025E00093EF1F0091062149630A03C293FFEFFF97
:1025F00013040002630806C217C300001303C333A9
:102600009372F6009A9283C902009354460093F2A3
:10261000F400230831019A92638E044083C90200BA
:102620009354860093F2F400A30831019A92638DCB
:10263000043E83C902009354C60093F2F4002309B8
:1026400031019A92638F043C83C9020093540601BE
:1026500093F2F400A30931019A926381043C83C987
:1026600002009354460193F2F400230A31019A9236
:102670006383043A83C902009354860193F2F40001
:10268000A30A31019A926384043A83C202007182E0
:102690003293230B510063050634034603002143A4
:1026A000A30BC1006FF06FB897C200009382C20203
:1026B0006FF0CF8F1306F9FF6344C0006FE07FFD1A
:1026C000137376008542894F0D4E3309C7006306A8
:1026D0000306630D53046306F305630FC30311463A
:1026E0006307C3021546630FC30019466307C3009F
:1026F0006364E8002300170105076364E800230012
:10270000170105076364E8002300170105076364E8
:10271000E8002300170105076364E80023001701A0
:1027200005076364E8002300170105076364E800F8
:10273000230017010507630427076364E8002300EB
:102740001701130617006364C800A30017011307DD
:1027500016006364E800A3001601130726006364F3
:10276000E80023011601130736006364E800A301A3
:102770001601130746006364E800230216011307DD
:1027800056006364E800A302160113076600636441
:10279000E8002303160113077600E31027FB014628
:1027A0006FE03FEFB37F3303254D930C3006B29FAC
:1027B00083CF0F00335A33032308F10163756D0E85
:1027C000B37F3A03B29F03CD0F00335A3A03A94FA8
:1027D000A308A10163FD6C0CB37C3A03B29C83CCCB
:1027E0000C00335A3A0323099101930C703E63F1B4
:1027F0006C1CB37C3A03B29C83CC0C00335A3A0372
:10280000A309910163F16B1EB37C3A03B29C83CCA4
:102810000C00335A3A03230A910163776B1AB37C95
:102820003A03B29C83CC0C00335A3A03A30A9101B9
:1028300063FF6A1AB37C3A03B29C83CC0C00335A10
:102840003A03230B9101A24C63F76C1AB37C3A0351
:10285000B29C83CC0C00335A3A03A30B9101B24CC7
:1028600063F56C1AB37C3A03B3593A03330A960101
:10287000034A0A00230C410163F16D1C4E96034686
:1028800006002543A30CC1006FE0DFDCFE861A873B
:102890006FE05FAF3A8E49B223000500098D828058
:1028A000B2826FF00FA80143854F6FE0BFDA054396
:1028B000894F6FE03FDA330359401376730085493F
:1028C00089448D4F130EF9FF63C422016FE01FF599
:1028D0003A932DC6630D360563069604630FF6031F
:1028E000914F6307F603954F630FF601994F630706
:1028F000F6016364E8002300170105076364E8003C
:102900002300170105076364E8002300170105078A
:102910006364E8002300170105076364E8002300EF
:10292000170105076364E8002300170105076364C6
:10293000E800230017010507630467066364E800E5
:1029400023001701130617006364C800A3001701D2
:10295000130716006364E800A3001601130726009E
:102960006364E80023011601130736006364E8007E
:10297000A3011601130746006364E8002302160151
:10298000130756006364E800A302160113076600EC
:102990006364E8002303160113077600E31067FA67
:1029A00033862241329E6FE07FE752866FF08FF8C8
:1029B00009438D4F6FE01FCA00102296034606FFA1
:1029C000A303C7006FF0EFBF1143954F6FE09FC89F
:1029D00016846FE0FFE22300170105076FF02FDC7C
:1029E0001D436FF08F840D43914F6FE0BFC61543B9
:1029F000994F6FE03FC619439D4F6FE0BFC5668694
:102A00006FF06FE4FE826FF08FA01D43A14F6FE067
:102A10007FC4668601B415436FF02F8111436FF0B8
:102A2000CF800D436FF06F8009436FF00F80194323
:102A30006FE0BFFF05436FE05FFF2143A54F6FE0ED
:102A40007FC1130400026FE0BFFD130400026FE0BA
:102A5000DFBD000017E5FF17032505908280000009
:102A60006F707012000000003971130341022ED202
:102A700032D436D62A869A869305F0071385018DBF
:102A800022CC3EDA06CE26CA17E4FF171304C48C04
:102A90003AD842DC46DE1AC6EFE0DF851C409DCF07
:102AA00083D4A7011307F007AA8613E60404239D25
:102AB000C7006361A7023E851386018D8145EFD073
:102AC000FFC41C40F2406244239D9700D244216120
:102AD000828001009306F007F9BF01001385018D84
:102AE0004137F2406244D24421618280411117C5CE
:102AF0000000130525C706C6853F17C5000013054E
:102B000025C79D3717C50000130585C917C70000E5
:102B1000130747C8814605468D45B937B24017C5EA
:102B200000001305E5C9410181B7000021C1937779
:102B3000F50F85E7C167938707F0E98FB1E7B7071E
:102B4000FF00E98F95E797C700009387A7CD6181C4
:102B50003E95034505006505828017C700001307F1
:102B600067CCBA9703C507000505828001458280BE
:102B7000418597C700009387E7CA1375F50F3E9507
:102B80000345050045058280218597C7000093878E
:102B900067C91375F50F3E9503450500250582802D
:102BA000011106CEA307010017D8FF170328087BE1
:102BB00063050800F24005610288B2862E86AA8568
:102BC00017C50000130585C245358347F10093F70B
:102BD000F70FA1E78347F10093F7F70F9DEF8347C6
:102BE000F10093F7F70F95EB8347F10093F7F70F99
:102BF0008DE78347F10093F7F70F85E38347F100F3
:102C000093F7F70F99EB8347F10093F7F70F91E7ED
:102C10008347F10093F7F70FCDDBF2400561828027
:102C2000411197D5FF1783A5A57417C5000013059B
:102C3000E5D106C6153D83A5818417C5000013059F
:102C400025D21D35B24097D5FF1783A5257217C52C
:102C50000000130525D2410101BD0000011122CC65
:102C600026CA06CE4AC84EC6AA84EF10B0322A84BD
:102C7000EFD09FEB61E92285EF105032D5C817D411
:102C8000FF171304E46E1C408D04F19863E2970A69
:102C9000B14763E7F406FD5513850195EFD09FBB5F
:102CA00017D3FF171303436C032803008328040082
:102CB00097D6FF1783A6066BB307D8403386984094
:102CC00063F1C7023384F6000357240005EB584034
:102CD000B305F740138545FF637B9508BA87E3E3A7
:102CE000C7FE13850195EFD07FD3F24062440149BE
:102CF000D244B2494A854249056182805C40C9B7E5
:102D0000FD5513850195EFD0FFB417D3FF171303BB
:102D1000A3650328030083280400B14497D6FF1756
:102D200083A64664B307D8403386984051BF01005C
:102D30000149F2406244D244B2494A8542490561A0
:102D40008280010097C500009385C5EC17C500007F
:102D500013050590113B1306601197C5000093857C
:102D600065EB17C50000130525D01D3D29B7138657
:102D700084016367C5081389C4003305F9008965B8
:102D80003386A600938505EA58C21CC60CC248C00B
:102D90005C4205472311E400B10863841701B6972C
:102DA00088C7138781841C4317D6FF171306065C58
:102DB0000C42B107A6971CC363EFF50C8967938794
:102DC00007EA2310F4006304880A97D9FF17938950
:102DD000295913850195EFD07FC483A70900229953
:102DE00063EB2707937734001309C400A9EB0D8820
:102DF0001DE883A7418495DFA6854A85829715BF84
:102E000093878184884317D7FF17130727561043EA
:102E1000AA9505452311A4008CC36373B6000CC3A7
:102E20001389C40061BF1306901897C500009385ED
:102E300065DE17C50000130565C39D335DBF13062E
:102E4000801897C500009385E5DC17C500001305C1
:102E500025BDB93369BF1306701897C50000938567
:102E600065DB17C50000130525B71D3BA5BF8357BC
:102E7000280097D9FF179389A94EA1DF03A709005E
:102E8000630D070103284800369883572800EDFB9F
:102E9000232003013DBF1CC215B72320E30015BF4B
:102EA000411122C426C24AC006C6AA842E84EF104D
:102EB000700E2A89EFD05FC715E5338484024A85F6
:102EC000EF10D00D2285593BAA8409C52286814581
:102ED000EFD05FC9B24022440249268592444101A5
:102EE0008280010097C50000938545D117B5000089
:102EF00013050576953E1306202197C5000093859E
:102F0000E5CF17C50000130525B659397DB7000078
:102F1000011122CC26CA06CE4AC84EC652C42A8403
:102F2000EF105007AA84EFD03FC0631F0518268515
:102F3000EF10D00639CC93773400639D071A97D4ED
:102F4000FF17938424429C40636AF40017D9FF174B
:102F500013090941832709006366F4041306E0227C
:102F600097E50000938505C317C50000130545B616
:102F7000053983A7018499C3228582979C40636A9F
:102F8000F40017D9FF171309A93D83270900636EC1
:102F9000F400F2406244D2444249B249224A0561F7
:102FA0008280010083A70184E1FBFD551385019513
:102FB000EFD05F8A835764FF930944FF81CB0357A7
:102FC00044FF8967938707EA6308F70417C5000081
:102FD0001305C5B5513C835644FF035664FFCE85A7
:102FE00017C50000130545B6EFF01FA8835764FF0F
:102FF000638F0714035744FF8967938707EA630DBC
:10300000F7001306E02497E500009385A5B817C5DF
:103010000000130525B7693617DAFF17130ACA34FB
:10302000896703270A00938707EA231B04FE231AF4
:10303000F4FE63F4E90023203A01138681841842E8
:103040009440832784FFB385D9401D8F2E9718C2E3
:1030500063EED90A0327090063F8E9109840BA978C
:103060006385F90283D627008DE283260900638EEB
:10307000D70083260A006386D710D043B386E94081
:10308000232CC4FEDC43BA9794C78326C4FFB3073E
:10309000D7006380F90203D6270001EE03260A0059
:1030A0006384C90E032684FFD0C3832784FF3E9721
:1030B00014C76244F240D2444249B249224A1385BD
:1030C000019505616FD09F9597E50000938585ACCC
:1030D00017B500001305C557EFF01F99130690228E
:1030E00097E50000938505AB17C500001305C5974C
:1030F000453C35BD1306D02297E50000938585A990
:1031000017C5000013058599613C15BD1306200AFB
:1031100097C50000938545AF17C50000130545A866
:1031200041348327090063F1F904835764FF89CF91
:103130001306400A97C50000938505AD17C500002A
:103140001305C5AAEFF0DFA5832784FF01BF13068F
:10315000D02497E500009385E5A317C5000013056B
:10316000A5A1EFF0FFA379B51306300A97C50000BB
:10317000938585A917C50000130585A4EFF05FA20C
:103180006DB723203A01D5BD2320FA0021BF0000EE
:10319000411122C426C24AC006C683A7C1840324A3
:1031A000C5FFAA841309C5FF81C7AA852285829716
:1031B000EF10405E1C541450585885071CD423AEA1
:1031C000D4FE23202403AA8401EB2244B24092447B
:1031D000024941016F10805C4854232E05003115CF
:1031E000EF0090545C582685FD175CD8EF10005B0B
:1031F0002244B240924402494101F9AE000000006D
:1032000097D7FF17938707E098436301E504984B2E
:103210006302E50498536301E504985B6300E504E9
:10322000B843630FE502B84B630EE502B853630D74
:10323000E502B85B630CE50203A70708630AE50231
:1032400003A707096308A70201458280014512050B
:103250003E9582800545E5BF0945D5BF0D45C5BFF3
:103260001145F5B71545E5B71945D5B71D45C5B79E
:103270002145F1BF2545E1BF0000000097D7FF17AA
:10328000938747D89843011122CC4AC84EC606CE30
:1032900026CA2E842A89B289638FE508984B6380F9
:1032A000E50A9853638FE508985B638EE508B84399
:1032B000638DE508B84B638CE508B853638BE5086C
:1032C000B85B638AE50803A707086388E50803A7D6
:1032D00007096386E5081306801097C500009385EB
:1032E000A5A117B500001305E5198144EFF05F8B28
:1032F000136404F8230489002146CE854A85EFD063
:10330000BFBE83A7018599C34A858297EF10804885
:10331000D8409307C90062445CC32326E900DCC09F
:1033200093864400F240D244B2492328D90042494E
:1033300005616F10A04681449204BE9455BF854438
:10334000E5BF8944D5BF8D44C5BF9144F5B79544C9
:10335000E5B79944D5B79D44C5B7A144F1BFA5448D
:10336000E1BF0000411122C406C62A841DC583A7FF
:10337000418599C32285829723040400EF10804180
:10338000544418489307C400B240D8C214C31CC8A0
:103390005CC4224441016F1060401306301397C58E
:1033A00000009385259417C500001305258AEFF0CA
:1033B0002FFF75BF00000000011122CC26CA4EC6A7
:1033C00006CE4AC8AA84AE89EF10C03C2A84EFD04A
:1033D000AFF579E12285EF10603C97D7FF1793870F
:1033E00067C298436381E40E984B6382E40E98535E
:1033F0006381E40E985B6380E40EB843638FE40C52
:10340000B84B638EE40CB853638DE40CB85B638CEB
:10341000E40C03A70708638AE40C03A70709638881
:10342000E40C1306A01597C500009385658A17B5AF
:103430000000130525050144EFF08FF64844EFF036
:10344000FF812A8931C150448145EFD0AFF1214637
:1034500023049900A3040900CE854A85EFD0DFA894
:1034600083A7018599C34A858297EF10A0325840FF
:103470009307C900930644005CC32326E9005CC09F
:103480002328D900EF108031F2406244D244B2497F
:103490004A8542490561828097C50000938545832E
:1034A00017B500001305C51AEFF00FDC1306601501
:1034B00097C500009385C58117B500001305C55A4F
:1034C000EFF00FEE01BF014412043E9485BF0544A6
:1034D000E5BF0944D5BF0D44C5BF1144F5B7154438
:1034E000E5B71944D5B71D44C5B72144F1BF2544FC
:1034F000E1BF0000411122C406C62A8439C98307EE
:10350000840063CB070283A7418599C322858297F4
:1035100023040400EF100028544418489307C40003
:10352000D8C214C31CC85CC4EF10402722852244B3
:10353000B24041016FF0DF9D1306501997B50000AE
:103540009385C57717B5000013058571EFF04FE53A
:103550005DBF1306401997B500009385257617B512
:1035600000001305A56EEFF0AFE351BF411122C477
:1035700006C62A8401C903058400B24022447D8125
:10358000410182801306601B97B500009385457149
:1035900017B500001305856BEFF08FE0E9BF000061
:1035A000411122C406C62A8409C903458400B240D9
:1035B00022441375F507410182801306901C97B5CC
:1035C00000009385A56C17B5000013052568EFF082
:1035D0002FDDE1BF00000000011106CE22CC26CA7B
:1035E0004AC84EC6EF10001B83970187D9EB2A8982
:1035F00003A5C187EFF08FD39307F5FF93963700AC
:103600001387019736970443138781868329070020
:103610001384C4FE638D89082382F18600C383A7C7
:10362000C18681C7A2854E85829741C4DC481307B5
:10363000300283C60700639FE604984463FCE704F6
:10364000944CBE9663E8E6049387070263F0E708AC
:1036500097D7FF1783C7C7CF938584001385C90108
:1036600091EFEF00B07E4A85EF1040136244F240C4
:10367000D2444249B2490545056169A4EF009078FA
:103680004A856244F240D2444249B24905616F1012
:10369000E0100100A28517B5000013052568EFF0C2
:1036A000AFBCEF202046EF10E00E5DD101A04A85AF
:1036B000C9BF1306900597B500009385E56E17B551
:1036C000000013056564EFF0AFCD8DB7A28517B587
:1036D000000013056566EFF02FB99DBF411122C4AC
:1036E00006C62A8429C5EF10E00A0347440383472E
:1036F000540313064401419B939637001367170048
:1037000093870197230AE402B697CC439386C18737
:10371000185C90C103A806000CCCD0C35CC822443E
:10372000B240B36707019CC241016F102007130626
:10373000201297B500009385656517B50000130545
:10374000A55CEFF0EFC545B700000000411122C4B1
:1037500006C62A8439C5EF10E0031C4C54481307F1
:103760004401DCC294C38347540318CC58C8139750
:10377000370093870197BA9798436307F70022446D
:10378000B24041016F1080011C5C1387C187144354
:10379000224493C7F7FFB240F58F1CC341016F006D
:1037A000F07F1306001597B500009385655C17B58B
:1037B000000013056555EFF0AFBE71BF411106C69D
:1037C000EF00507D1387018783570700B2408507BC
:1037D0002310F70041016F00707C0000011122CC22
:1037E00006CE1384018726CA4AC84EC6EF00907AD7
:1037F00083570400FD17C207C1872310F400635BE1
:10380000F0006244F240D2444249B24905616F007F
:10381000F078010023980186EF005078EF00907750
:10382000831704002A89F1FF03A5C187EFF00FB0C9
:103830009307F5FF93963700138701973697044354
:1038400013878186832907001384C4FE630C34091F
:103850002382F18600C383A7C18681C7A2854E85D6
:10386000829759C0DC481307300283C60700639A69
:10387000E604984463F7E704944CBE9663E3E604D9
:103880009387070263E9E700A28517B500001305D7
:10389000A54AEFF06F9D97D7FF1783C767AB938556
:1038A00084001385C9019DEBEF00505A4A85EF0053
:1038B000F06E6244F240D2444249B2490545056186
:1038C00091A0A28517B5000013054545EFF0CF99EB
:1038D000EF204023EF00106C5DDD01A0EF0090525F
:1038E0004A8505B74A8531BF1306900597B5000094
:1038F0009385854B17B5000013050541EFF04FAADE
:1039000095B70000797106D622D426D24ECE4AD081
:1039100052CC56CA5AC85EC6AA89792A2A84EF00B0
:1039200070677C403844AA84F98FA5CB8347440351
:1039300093F70702BDE3854A5D5A81A88327890072
:1039400091C3E1178354090038487CC89397240039
:10395000BA9783AB0700339B9A00EF00306463840F
:103960000B002685829BEF00F0627C40134BFBFF2F
:10397000AA84B3F767017CC04A85EFF07F817C4061
:10398000384423284403F98F91C703294405268529
:10399000E31609FA8547638FF9002254B2500259A1
:1039A000F249624AD24A424BB24B26859254456153
:1039B0006F00D05E83474403BD9B230AF402F1BF2E
:1039C00000000000411106C622C426C203A481865D
:1039D000EF00505CAA842285953B9147230AF402AC
:1039E00013050406EF0000662285EFF03FB8854717
:1039F0006304F5029387418798439306440194C377
:103A000054C358C81CCC2685EF0050592244B240FC
:103A1000924441016FF05FBC8327C408E1FF228517
:103A2000EFF05F94CDB70000411122C406C62A848E
:103A30002DC5834744030947BD8B638EE7001306FA
:103A4000C02E97B500009385254717B500001305D4
:103A50006537EFF0EF942285EFF09FB415E15448FD
:103A6000184CF9571CD8D8C29307440114C31CCC76
:103A70005CC82285A5312244B24041016FF0DFB518
:103A80001306D02E97B500009385054317B50000A7
:103A900013050537EFF0CF90D9B71306B02E97B5C1
:103AA00000009385654117B500001305E525EFF08B
:103AB0002F8F41B70000000003A58186828000009F
:103AC000411122C406C626C22A8463080510834712
:103AD0004403BD8BC1E32285EFF09FAC41ED03476A
:103AE00064038547B397E7001CDC8947A30AE40217
:103AF000230AF40245C82285EFF09FAA71E18347AB
:103B000044030947BD8B639CE702EF00B04854486B
:103B1000184C93074401AA84D8C214C31CCC5CC8B7
:103B200013050406EF00006C2685EF003047228560
:103B3000EFF0DFBA83A7418899C32285829783A7D4
:103B4000818699C3EFF05FA9B240224492440145B7
:103B50004101828017B5000013058532130650110C
:103B600097B500009385053AEFF08F832285EFF03B
:103B70003FA335D51306601197B5000093858538AE
:103B800017B500001305C527EFF08F8103476403C5
:103B90008547B397E7001CDC8947A30AE402230AA0
:103BA000F40231F81306E02B97B500009385053237
:103BB00017B5000013054515EFE09FFE2DBF01006E
:103BC0001306F02B97B500009385453017B500001C
:103BD00013050523EFE0DFFC1DB71306401197B571
:103BE00000009385253217B500001305E511EFE0BD
:103BF0003FFBF1BD01112A8856C20145AE8AC2853C
:103C000022CC26CA4AC84EC652C406CE328AB684D0
:103C10003A89BE89EFF04FFA2A8445C12685EFF034
:103C2000EF8361C51307440118CC58C82686930555
:103C30003002232054032322440308D444D4EFC089
:103C40007FF25C5410544C500850F1173E96970682
:103C50000000938666D7EF00301648CCFD4763E935
:103C600027078147230B2403A30A2403232C0402E0
:103C7000232C3405232E340523280402230A0402AE
:103C800023260408232804080147A28617060000FB
:103C90001306C6D9A285130504061D2E83A7018825
:103CA00023240404232204042326040423280404D4
:103CB000232A040499C322858297F2402285624414
:103CC000D2444249B249224A924A056182800100A7
:103CD0001306E00997B500009385052417B5000089
:103CE0001305C517EFE0DFEBADBF22850144EFF010
:103CF0007F80E1B7411106C6EF00D02983A78186F6
:103D000003C747030546AA863D8B6316C700D04B01
:103D1000984F6319E6003685EF005028B240014500
:103D20004101828058C210C303C7570393864701DD
:103D300094CF1316370013870197D4CB3297504393
:103D400014C290CF54C3D8CBEF005025EFF0DF88DA
:103D5000F1B70000797106D622D426D24AD04ECED1
:103D6000EFC0CFE12AC6EF00F02203A48186AA8427
:103D70004DCC2285EFF0DF8241ED2285EFF05F82AE
:103D800035E9834744030547BD8B639AE70EEF008F
:103D9000702083474403AA892285C19B93E72700AB
:103DA000230AF402EFF09F9A130904064A851D299D
:103DB0004E85EF00B01E83A7818899C32285829724
:103DC000700081454A855D214A85092E2685EF00D0
:103DD000F01CEFF07F801858F9576314F700232880
:103DE0000402B250225492540259F24901454561ED
:103DF000828001001306402997B500009385450E87
:103E000017B500001305C5FFEFE09FD99DBF010066
:103E10001306002097B500009385C50D17B5000067
:103E2000130505FEEFE0DFD789BF17B500001305C6
:103E3000A5ED1306F01F97B500009385A50BEFE0E5
:103E40003FD60145EFF0CFF511ED1306302997B5B8
:103E500000009385E50817B500001305E5EAEFE0DB
:103E60003FD421BF1306002097B500009385850835
:103E700017B500001305C5F8EFE09FD2F9B7130995
:103E800004063DBF411122C406C626C22A842DCD98
:103E90002285EFF0EFF029E5834744030547BD8B0A
:103EA0006391E708EF00100F83474403AA8422853B
:103EB000C19B93E72700230AF402EFF03F89130523
:103EC00004060D262685EF00700D83A781889DC707
:103ED000228582970145B24022449244410182806A
:103EE0001306402997B50000938585FF17B500009C
:103EF000130505F1EFE0DFCA45B70100B2402244E7
:103F000092440145410182801306302997B5000093
:103F1000938505FD17B50000130505DFEFE05FC8C9
:103F200085BF7D554DBF0000411122C406C626C283
:103F30002A843DCD2285EFF0AFE639E5834744037F
:103F40000947BD8B6393E708EF00D0045448184C31
:103F500093074401AA84D8C214C31CCC5CC81305BF
:103F6000040649242685EF0070032285EFF00FF741
:103F700083A7418885CB228582970145B2402244A0
:103F800092444101828001001306F02B97B5000096
:103F90009385C5F317B50000130585E6EFE05FC014
:103FA00071BF0100B2402244924401454101828028
:103FB0001306E02B97B50000938545F117B5000077
:103FC000130585D4EFE0DFBDB5B77D5545BF0000D3
:103FD000011122CC26CA4AC84EC652C456C206CEC9
:103FE0002A84AE8A328AB6893A89BE8415CD56862D
:103FF0002285A545EFF08FA8F998A30494009307B4
:104000004401232E44012320340323222403F240BD
:10401000232404021CCC5CC86244D2444249B24905
:10402000224A924A056182801306C00B97B50000B0
:104030009385C5FD17B50000130505EFEFE05FB6EA
:104040007DB70000411122C406C62A842DC92285ED
:10405000EFF00FD5A547630EF5001306200D97B5B9
:1040600000009385A5F917B50000130525EDEFE0D5
:104070003FB32285EFF08FCF15C5EF00A0715448F4
:10408000184C93074401D8C214C31CCC5CC8EF0081
:10409000E0702285EFF00FADB240224401454101AE
:1040A000828001001306300D97B50000938505F559
:1040B00017B50000130545ECEFE09FAE7DBF13067A
:1040C000100D97B50000938565F317B50000130533
:1040D000A5E5EFE0FFACA5BF00000000411122C440
:1040E00006C626C22A84630E050C2285EFF04FCB4C
:1040F000A547630EF5001306501397B5000093858E
:10410000E5EE17B50000130565E3EFE07FA959253B
:104110001C4C5848930444015CC398C383479400E3
:1041200004CC44C8F99BA304F4008D2D83A7C1855A
:1041300099C3228582975850B707008093C7E7FF3D
:1041400063E4E706EFC00F9F5C50AA971CD4992543
:1041500093870189CC436383F508145437080080A2
:104160001348E8FF3E869C43D84B6305D700158F64
:104170006376E800E398B7FE3E869C43C4C35CC800
:1041800004C2034794009386C1889C4213671700BA
:1041900010CC8507A304E4009CC20925B240224448
:1041A00092440145410182801306501497B50000E6
:1041B0009385C5E317B500001305C5DEEFE05F9EEC
:1041C00051B71306401397B50000938525E217B544
:1041D0000000130565D5EFE0BF9C01BF9C412E8612
:1041E00071BF0000411122C406C62A8425C1228560
:1041F000EFF00FBBA547630EF5001306E01A97B565
:1042000000009385A5DD17B50000130525D3EFE069
:104210003F9983479400858BB9C783A7818599C34C
:1042200022858297852B5448184C93074401D8C2A5
:1042300014C31CCC5CC89D23834794000145F99BA3
:10424000A304F400B2402244410182801306D01A34
:1042500097B50000938585D817B500001305C5CC28
:10426000EFE01F9469B77D55F1BF0000411122C4F2
:1042700026C24AC006C6AA842E84328935C926853C
:10428000EFF00FB2A547630EF5001306101D97B5AA
:104290000000938565D317B50000130525CAEFE02C
:1042A0003F908947630CF40263C0870215CC8547B1
:1042B0006315F400DC502320F900B24022449244FC
:1042C00002490145410182808D47E318F4FE83C70E
:1042D000940093E72700A384F400C5B783C7940034
:1042E000F59BA384F400D1BF83270900DCD0F1B78C
:1042F0001306001D97B50000938505CD17B5000086
:10430000130585C2EFE0DF899DBF0000797106D6F5
:1043100022D426D24AD05AC84ECE52CC56CA5EC6F5
:1043200062C466C26AC093840189EFC0AF802A89E3
:10433000952180402A8B630E94104848B70C00806A
:1043400093CCECFF3305A940130DC4FE63E3AC101E
:104350008D4A254C938BC1859389C188138A8189A5
:1043600021A8010080406306940E5C48130DC4FE32
:104370003309F94063EF2C0D83270A0099C36A853E
:10438000829718405C40144448445CC398C340C0C2
:1043900000C08296EFB01FFA834754FF2A8913F7B3
:1043A0003700F99BA30AF4FEE31E57FB630F0D0CC5
:1043B0006A85EFF0EF9E630E85011306501397B5E3
:1043C00000009385A5C217B50000130525B7EFE0DF
:1043D0002FFDC9265C4018405CC398C3834754FF37
:1043E00040C000C0F99BA30AF4FE4D2E83A70B002A
:1043F00099C36A8582971C4863ECFC06EFB09FF373
:104400001C48AA975CC87926CC40638D950854480F
:10441000938701893E869C43D84B6305D700158F4F
:1044200063F6EC00E398B7FE3E869C43C0C31CC015
:1044300000C2034754FF83A7090050C01367170049
:104440008507A30AE4FE23A0F900892E8040E31E1D
:1044500094F02254B25092540259F249624AD24A1C
:10446000B24B224C924C024D5A85424B45613DA6BF
:104470001306501497B50000938545B717B5000093
:10448000130545B2EFE0CFF195BF1306401397B582
:1044900000009385A5B517B500001305E5A8EFE06A
:1044A0002FF039B79C40268651B70000000000006D
:1044B00097120018938202B573900234032105000D
:1044C000824273901234D652739002309240A242CC
:1044D0003243C2435244E244724582551256A256B8
:1044E0003257C2575258E25872598649164AA64A5C
:1044F000364BC64B564CE64C764D865D165EA65E38
:10450000365FC65F1301810773002030130181F805
:1045100006C216C41AC61EC822CA26CC2ACE2ED05F
:1045200032D236D43AD63ED842DA46DC4ADECEC063
:10453000D2C2D6C4DAC6DEC8E2CAE6CCEACEEED033
:10454000F2D2F6D4FAD6FED8F322003096DA83A25D
:10455000C18923A02200F322103416C0EF000013FB
:1045600083A2018A03A10200824273901234D652C0
:10457000739002309240A2423243C2435244E2441A
:10458000724582551256A2563257C2575258E258B7
:1045900072598649164AA64A364BC64B564CE64CCB
:1045A000764D865D165EA65E365FC65F1301810797
:1045B00073002030000000001106719A130886F87D
:1045C00037C7ADDEC2871307F7EE98C3D8C398C7C5
:1045D000D8C798CBD8CB98CFD8CF98D3D8D39387F8
:1045E0008702E314F6FE9167938707882324A6F8D1
:1045F0002326D6F82322B6FA232EF6FE42858280A1
:10460000000000009387418A984319E323AEA188F4
:1046100023A0B18A054798C3F32740F191EF3717DC
:1046200000D18327C7FF93E71700232EF7FE0F0063
:10463000F00F0F1000008280B71600D18A07B697DE
:1046400098C30F00F00F0F100000828023AEA188E6
:1046500023A0B18AF32740F191EF371700D18327C8
:10466000C7FF93E71700232EF7FE0F00F00F0F1080
:1046700000008280371700D18A07BA97054798C390
:104680000F00F00F0F10000082800000F32740F1B0
:1046900081EF371700D18327C7FFF99B232EF7FE41
:1046A00023A2018A82800100371700D18A07BA97B6
:1046B000014798C323A2018A82800000011197C795
:1046C000FF1783A767C7B70600D113070019B3D731
:1046D000E70206CE13874600104332C2904232C42E
:1046E00018433AC6124632476304E600944236C481
:1046F000B246A2453386B7003337F600369763F8E3
:10470000E604F32740F19DC3B75600D18E07B69754
:10471000FD5694C39386470098C290C3EFC0CFB9AB
:10472000EFB01FC2F24005616FC08FBCB70700D168
:1047300093868700FD558CC2B10798C390C2EFC025
:10474000AFB7EFB0FFBFF24005616FC06FBA63143F
:10475000D700E3E8C5FA0146B70600D190C2138737
:10476000460010C390C2732740F109EB1386860000
:10477000FD550CC2B10698C21CC24DB7B75600D148
:104780000E073697FD5614C39306470090C21CC30C
:1047900071B700007375043082800000731005301B
:1047A0008280000000000000000000000000000007
:1047B00000000000000000000000000000000000F9
:1047C000731191345D7106C012C216C41AC61EC898
:1047D0002ACA2ECC32CE36D03AD23ED442DC46DE85
:1047E000F2C0F6C2FAC4FEC673D0E57E7350F67E00
:1047F00073D0B67E732520348A85EF30B079D252DB
:104800007390427CC25273901234B252739022342D
:1048100082401242A2423243C2435245E2457246AE
:1048200082561257A2576258F258064E964E264F9D
:10483000B64F6161731191347300203000000000A5
:10484000731191345D7106C012C216C41AC61EC817
:104850002ACA2ECC32CE36D03AD23ED442DC46DE04
:10486000F2C0F6C2FAC4FEC673D0E57E7350F67E7F
:1048700073D0B67EF390D07E73700430D2527390B2
:10488000427CC25273901234B252739022348240EE
:104890001242A2423243C2435245E2457246825618
:1048A0001257A2576258F258064E964E264FB64FF0
:1048B0006161731191347300203001A00000000089
:1048C000411117B500001305258706C6EFE0CF9903
:1048D000B24001454101828000000000411106C63E
:1048E000EFE0CFA0B240014541018280000000000E
:1048F00059712145CAD0D2CC86D6A2D4A6D2CECE6A
:10490000D6CAEFE0FF8F2A8A1309450097B7000047
:104910009387C7D80A8717B80000130828DD884393
:10492000CC439047D44708C34CC310C754C7C107F2
:104930004107E39607FF17B5000013052581EFC077
:104940003F95AA84EFE09FE703244A00630C8900A7
:10495000130544FFEFC0DF9363D3A400AA84004093
:10496000E31889FEEFE09FE7A14763C7970CE9C40E
:1049700017A600001306867DA68517A5000013055F
:10498000657D1384F4FFEFE02F8E930714009D8B59
:1049900097A900009389897EFD5AE9E74E85EFE0EB
:1049A000AF8C4E85EFE04F8C4E85EFE0EF8B4E8560
:1049B000EFE08F8B4E85EFE02F8B4E85EFE0CF8AB7
:1049C0004E85EFE06F8A61144E85EFE0EF89E317C3
:1049D00054FD17A500001305A57AEFE0EF88032426
:1049E0004A0063008904CD4A17AA0000130A4A74DA
:1049F00097A900009389097B1C442146A6854E8512
:104A00005287930644FF63EDFA0A8A0798083E9797
:104A1000032707FB83470401EFE00F850040E31DF8
:104A200089FCB650265496540659F649664AD64A29
:104A30000145656182800100A14417A600001306AC
:104A4000E670A68517A500001305C5701D44EFE0AC
:104A5000AF81930714009D8B97A900009389097279
:104A6000FD5A8DDF05476385E7040947638EE7023A
:104A70000D476387E70211476380E70215476389A3
:104A8000E7001947639FE7044E85EFD0FFFD7D14D3
:104A90004E85EFD07FFD7D144E85EFD0FFFC7D1459
:104AA0004E85EFD07FFC7D144E85EFD0FFFB7D144B
:104AB0007D144E85EFD05FFBE31254EF19BF010068
:104AC00083470401EFD05FFA0040E31789F2B65044
:104AD000265496540659F649664AD64A01456561F8
:104AE00082804E85EFD05FF87D1479BF79711D45C6
:104AF00006D622D44AD056CA5AC826D24ECE52CC56
:104B00005EC662C466C2EFE0AFEF2A8917A5000057
:104B10001305856AEFC0CFF7AA8AEFE03FCA0324E6
:104B20004900130B4900630D8B000100130544FF7E
:104B3000EFC00FF663D3AA00AA8A0040E3188BFEE9
:104B4000EFE0DFC9A14763CD5711638B0A1017A6A9
:104B5000000013066666D68517A500001305456696
:104B60001384FAFFEFD05FF0930714009D8B97A496
:104B700000009384A460FD59639B07102685EFD045
:104B8000BFEE2685EFD05FEE2685EFD0FFED2685C0
:104B9000EFD09FED2685EFD03FED2685EFD0DFECFF
:104BA0002685EFD07FEC61142685EFD0FFEBE3176D
:104BB00034FD17A5000013052563EFD0FFEA832419
:104BC000490063019B0897AC0000938C2C6497BB51
:104BD0000000938BEB2417AA0000130AEA6497A93C
:104BE00000009389A96417AC0000130C6C640100E9
:104BF00083A8840203A8C4019C4C98486386080ECD
:104C0000938644FF2146D6856685EFD0FFE5805028
:104C1000138904026319890005A00100EFD0DFE4C5
:104C20000040630B890052859305C4FEEFD0DFE39B
:104C30001C404E85E314F9FE5E85EFD0FFE2844010
:104C4000E3189BFAB250225492540259F249624A34
:104C5000D24A424BB24B224C924C01454561828074
:104C6000A14A17A6000013062655D68517A50000F1
:104C7000130505551D44EFD03FDF930714009D8BAE
:104C800097A400009384844FFD59E38907EE0547FC
:104C90006385E7040947638EE7020D476387E702F0
:104CA00011476380E70215476389E7001947639658
:104CB000E7042685EFD05FDB7D142685EFD0DFDAB1
:104CC0007D142685EFD05FDA7D142685EFD0DFD9FD
:104CD0007D142685EFD05FD97D147D142685EFD015
:104CE000BFD8E31D34E9F1B58148938644FF2146DE
:104CF000D6856285EFD05FD799B72685EFD0DFD60E
:104D00007D1445BF0111194506CE22CC26CA4AC8DA
:104D100052C44EC656C2EFE0AFCE2A8A17A5000095
:104D20001305C552EFC0CFD6AA84EFE03FA90324F4
:104D30004A0013094A00630D89000100130544FF6E
:104D4000EFC00FD563D3A400AA840040E31889FE06
:104D5000EFE0DFA8A14763CF9716638D041617A66F
:104D600000001306A64EA68517A500001305854E64
:104D70001384F4FFEFD05FCF930714009D8B97A9A6
:104D800000009389A93FFD5A639D07164E85EFD019
:104D9000BFCD4E85EFD05FCD4E85EFD0FFCC4E8599
:104DA000EFD09FCC4E85EFD03FCC4E85EFD0DFCB00
:104DB0004E85EFD07FCB61144E85EFD0FFCAE3174D
:104DC00054FD17A500001305E54BEFD0FFC90324E0
:104DD0004A006306890E97A900009389694D03284C
:104DE00004015C485844930644FF2146A6854E853D
:104DF000EFD09FC700402146A6854E856301890CF0
:104E0000032804015C485844930644FFEFD0DFC5F3
:104E100000402146A6854E856303890A03280401C4
:104E20005C485844930644FFEFD01FC4004021461D
:104E3000A6854E8563058908032804015C4858440B
:104E4000930644FFEFD05FC200402146A6854E8501
:104E500063078906032804015C485844930644FF0D
:104E6000EFD09FC000402146A6854E856309890486
:104E7000032804015C485844930644FFEFD0DFBE8A
:104E800000402146A6854E85630B89020328040154
:104E90005C485844930644FFEFD01FBD00402146B4
:104EA000A6854E85630D8900032804015C4858449B
:104EB000930644FFEFD05FBB0040E31289F2F2405B
:104EC0006244D2444249B249224A924A01450561AC
:104ED00082800100A14417A6000013062637A6858C
:104EE00017A50000130505371D44EFD0FFB7930742
:104EF00014009D8B97A9000093894928FD5AE387E8
:104F000007E805476385E7040947638EE7020D4715
:104F10006387E70211476380E70215476389E7006B
:104F20001947639DE7024E85EFD01FB47D144E856F
:104F3000EFD09FB37D144E85EFD01FB37D144E8507
:104F4000EFD09FB27D144E85EFD01FB27D147D143B
:104F50004E85EFD07FB1E31B54E3A5B54E85EFD06E
:104F6000BFB07D14C9B700007971154506D622D4AB
:104F70004AD056CA5EC626D24ECE52CC5AC862C459
:104F800066C2EFE0EFA72A8917A5000013050534D4
:104F9000EFC00FB0AA8AEFE07F8203244900930B91
:104FA0004900638D8B000100130544FFEFC04FAE35
:104FB00063D3AA00AA8A0040E3988BFEEFE01F8229
:104FC000A14763C5571763830A1617A60000130687
:104FD000E62FD68517A50000130505301384FAFFC8
:104FE000EFD09FA8930714009D8B97A40000938493
:104FF000E418FD59639307162685EFD0FFA6268592
:10500000EFD09FA62685EFD03FA62685EFD0DFA55F
:105010002685EFD07FA52685EFD01FA52685EFD06A
:10502000BFA461142685EFD03FA4E31734FD17A574
:1050300000001305252CEFD03FA303294900638806
:105040002B0D17AC0000130C6C2C17BB0000130BBE
:105050002BDD17AA0000130A2A1D97A900009389C7
:10506000E91C97AC0000938CAC2B01000324890051
:105070001306890003578901930649FF8147630B93
:10508000861200408507BE856304860400408507BC
:1050900063008604004093872500630B860200406E
:1050A00093873500630686020040938745006301BD
:1050B0008602004093875500630C8600004093876A
:1050C000650063078600004093877500E31B86FA3E
:1050D0002146D6856285EFD03F99832489006318E5
:1050E000940039A8EFD05F988440630B94005285F8
:1050F0009385C4FEEFD05F979C404E85E314F4FE89
:105100005A85EFD07F9603290900E3912BF7B2501F
:10511000225492540259F249624AD24A424BB24B4B
:10512000224C924C0145456182800100A14A17A69C
:1051300000001306A619D68517A500001305C5198A
:105140001D44EFD07F92930714009D8B97A400001D
:105150009384C402FD59E38107EA05476385E704A8
:105160000947638EE7020D476387E70211476380B3
:10517000E70215476389E70019476393E70426852B
:10518000EFD09F8E7D142685EFD01F8E7D1426854F
:10519000EFD09F8D7D142685EFD01F8D7D14268541
:1051A000EFD09F8C7D147D142685EFD0FF8BE31507
:1051B00034E5B5BD2146D6856685EFD0FF8AA1B717
:1051C0002685EFD07F8A7D145DBF0000797111457F
:1051D00006D622D44AD056CA5EC626D24ECE52CC6D
:1051E0005AC862C466C2EFE0AF812A8917A50000E1
:1051F00013054514EFC0CF89AA8AEFE02FDC032402
:105200004900930B4900638D8B000100130544FF97
:10521000EFC00F8863D3AA00AA8A0040E3988BFEF0
:10522000EFE0CFDBA14763C7571763850A1617A6C0
:10523000000013062610D68517A5000013050510DB
:105240001384FAFFEFD05F82930714009D8B97A41D
:1052500000009384A4F2FD59639507162685EFD0CC
:10526000BF802685EFD05F802685EFD0EFFF2685B3
:10527000EFD08FFF2685EFD02FFF2685EFD0CFFE12
:105280002685EFD06FFE61142685EFD0EFFDE31782
:1052900034FD17A500001305A50CEFD0EFFC032982
:1052A0004900638A2B0D17AC0000130C2C0D17BBA3
:1052B0000000130BEBB617AA0000130AEAF697A931
:1052C00000009389A9F697AC0000938CAC0C010008
:1052D0000324890013068900930649FF630086149E
:1052E0000357690183574901014800400508C285F9
:1052F00063048604004005086300860400401388A8
:105300002500630B86020040138835006306860281
:105310000040138845006301860200401388550051
:10532000630C860000401388650063078600004018
:1053300013887500E31B86FA2146D6856285EFD077
:10534000AFF2832489006318940039A8EFD0CFF11D
:105350008440630B940052859385C4FEEFD0CFF058
:105360009C404E85E314F4FE5A85EFD0EFEF0329FD
:105370000900E39F2BF5B250225492540259F2498E
:10538000624AD24A424BB24B224C924C0145456193
:1053900082800100A14A17A600001306A6F9D6854F
:1053A00017A50000130585F91D44EFD0EFEB930717
:1053B00014009D8B97A40000938444DCFD59E38F77
:1053C00007E805476385E7040947638EE7020D4751
:1053D0006387E70211476380E70215476389E700A7
:1053E00019476398E7042685EFD00FE87D142685DA
:1053F000EFD08FE77D142685EFD00FE77D1426854B
:10540000EFD08FE67D142685EFD00FE67D147D1456
:105410002685EFD06FE5E31334E5A5BD8357490139
:105420000357690101482146D6856685EFD0CFE351
:105430003DBF2685EFD04FE37D1475B70000000017
:105440000111094506CE22CC26CA4AC852C44EC60E
:1054500056C2EFD0FFDA2A8A17A50000130505F51A
:10546000EFB01FE3AA84EFE06FB503244A001309ED
:105470004A00630D89000100130544FFEFB05FE1AE
:1054800063D3A400AA840040E31889FEEFE00FB5BF
:10549000A14763CA97106388041017A6000013067B
:1054A000E6F0A68517A500001305C5F01384F4FFE8
:1054B000EFD08FDB930714009D8B97A90000938991
:1054C000E9CBFD5A639807104E85EFD0EFD94E8592
:1054D000EFD08FD94E85EFD02FD94E85EFD0CFD8D2
:1054E0004E85EFD06FD84E85EFD00FD84E85EFD0D8
:1054F000AFD761144E85EFD02FD7E31754FD17A512
:105500000000130565EDEFD02FD603244A00630297
:10551000890897A90000938929EE01000C4413071C
:1055200084005C4803483401930644FF8148638942
:10553000E5048C41850846866304B7048C418508E0
:105540006300B7048C4193082600630BB7028C41BB
:10555000930836006306B7028C4193084600630146
:10556000B7028C4193085600630CB7008C41930836
:1055700066006307B7008C4193087600E31BB7FA17
:1055800021472146A6854E85EFD00FCE0040E31778
:1055900089F8F2406244D2444249B249224A924ACE
:1055A000014505618280A14417A60000130606E0AC
:1055B000A68517A500001305E5DF1D44EFD0CFCA6F
:1055C000930714009D8B97A90000938929BBFD5A6E
:1055D000E38C07EE05476385E7040947638EE7021E
:1055E0000D476387E70211476380E7021547638928
:1055F000E7001947639DE7024E85EFD0EFC67D14A3
:105600004E85EFD06FC67D144E85EFD0EFC57D146B
:105610004E85EFD06FC57D144E85EFD0EFC47D145D
:105620007D144E85EFD04FC4E31054EBC9BD4E85B9
:10563000EFD08FC37D14C9B70000000079710D450C
:1056400006D622D44AD056CA5EC626D24ECE52CCF8
:105650005AC862C466C2EFD0BFBA2A8917A5000033
:10566000130505DBEFB0DFC2AA8AEFE02F95032414
:105670004900930B4900638D8B000100130544FF23
:10568000EFB01FC163D3AA00AA8A0040E3988BFE43
:10569000EFE0CF94A14763C5571763830A1617A697
:1056A00000001306E6D6D68517A500001305C5D65B
:1056B0001384FAFFEFD04FBB930714009D8B97A480
:1056C00000009384A4ABFD59639307162685EFD0A1
:1056D000AFB92685EFD04FB92685EFD0EFB8268534
:1056E000EFD08FB82685EFD02FB82685EFD0CFB773
:1056F0002685EFD06FB761142685EFD0EFB6E3179C
:1057000034FD17A50000130565D3EFD0EFB50329CD
:10571000490063882B0D17AC0000130C2CD417AB79
:105720000000130BEB6F17AA0000130AEAAF97A94A
:1057300000009389A9AF97AC0000938CACD3010013
:10574000032489001306890003270901930649FFF2
:10575000630C8612814700408507BE85630486047A
:105760000040850763008604004093872500630B93
:1057700086020040938735006306860200409387C7
:10578000450063018602004093875500630C860044
:10579000004093876500630786000040938775008B
:1057A000E31B86FA2146D6856285EFD0EFAB8324D2
:1057B00089006318940039A8EFD00FAB8440630BC5
:1057C000940052859385C4FEEFD00FAA9C404E856D
:1057D000E314F4FE5A85EFD02FA903290900E391C1
:1057E0002BF7B250225492540259F249624AD24ADB
:1057F000424BB24B224C924C0145456182800100E4
:10580000A14A17A600001306A6C0D68517A500005A
:10581000130585C01D44EFD02FA5930714009D8B61
:1058200097A4000093848495FD59E38107EA054716
:105830006385E7040947638EE7020D476387E70244
:1058400011476380E70215476389E70019476393AF
:10585000E7042685EFD04FA17D142685EFD0CFA099
:105860007D142685EFD04FA07D142685EFD0CF9FE5
:105870007D142685EFD04F9F7D147D142685EFD0B3
:10588000AF9EE31534E5B5BD2146D6856685EFD0DC
:10589000AF9DA1B72685EFD02F9D7D145DBF000081
:1058A0007971054506D622D44AD056CA5EC626D29C
:1058B0004ECE52CC5AC862C466C2EFD07F942A89B9
:1058C00017A50000130545BCEFB09F9CAA8AEFD036
:1058D000FFEE03244900930B4900638D8B00010008
:1058E000130544FFEFB0DF9A63D3AA00AA8A0040F1
:1058F000E3988BFEEFD09FEEA14763C557176383F4
:105900000A1617A60000130626B8D68517A50000AC
:10591000130545B81384FAFFEFD00F9593071400D1
:105920009D8B97A4000093846485FD5963930716AB
:105930002685EFD06F932685EFD00F932685EFD085
:10594000AF922685EFD04F922685EFD0EF91268536
:10595000EFD08F912685EFD02F9161142685EFD05F
:10596000AF90E31734FD17A50000130565B4EFD021
:10597000AF8F0329490063882B0D17AC0000130C6F
:10598000ACB417AB0000130BAB4917AA0000130A05
:10599000AA8997A900009389698997AC0000938C24
:1059A000ACB30100032489001306890003570901E1
:1059B000930649FF8147630B861200408507BE8529
:1059C00063048604004085076300860400409387D3
:1059D0002500630B8602004093873500630686022C
:1059E000004093874500630186020040938755007D
:1059F000630C8600004093876500630786000040C3
:105A000093877500E31B86FA2146D6856285EFD021
:105A1000AF85832489006318940039A8EFD0CF8420
:105A20008440630B940052859385C4FEEFD0CF83EE
:105A30009C404E85E314F4FE5A85EFD0EF82032993
:105A40000900E3912BF7B250225492540259F249C3
:105A5000624AD24A424BB24B224C924C01454561BC
:105A600082800100A14A17A600001306E6A1D68590
:105A700017A50000130505A21D44EFC0FFFE930704
:105A800014009D8B979400009384446FFD59E3812B
:105A900007EA05476385E7040947638EE7020D4778
:105AA0006387E70211476380E70215476389E700D0
:105AB00019476393E7042685EFC01FFB7D142685F5
:105AC000EFC09FFA7D142685EFC01FFA7D1426854E
:105AD000EFC09FF97D142685EFC01FF97D147D145A
