:020000040800F2
:100000006F0000187A5200087A520008F44C000879
:100010007A5200087A5200087A5200088450000888
:100020007A5200087A5200087A5200087A52000880
:100030007A5200087A5200087A5200087A52000870
:100040007A520008000000000000000000000000DC
:1000500000000000000000000000000000000000A0
:100060000000000004A4000834A4000864A40008F0
:1000700094A40008C4A400080000000000000000D0
:100080000000000000000000000000000000000070
:100090000000000000000000000000000000000060
:1000A0000000000000000000F4A4000800000000B0
:1000B0000000000000000000000000000000000040
:1000C0000000000000000000000000000000000030
:1000D0000000000000000000000000000000000020
:1000E00090A900080000000000000000B0A5000872
:1000F00000000000000000007A5200087A52000858
:100100007A5200087A5200087A5200080000000073
:100110007A5200080000000000000000000000000B
:1001200000000000000000000000000000000000CF
:1001300000000000000000000000000000000000BF
:100140007A5200087A520008000000000000000007
:10015000000000000000000000000000000000009F
:10016000000000000000000000000000000000008F
:10017000000000000000000000000000000000007F
:1001800073700430170500001305C5FF8545F6059B
:10019000637BB50089816378B500170500001305FE
:1001A000C5002E9502859711001893812199170299
:1001B00000181302A219175100181301A1E49302A9
:1001C000002073A0027D970200009382A2E3739047
:1001D0007230975200009382E2027390C27E73E005
:1001E000C07E970200009382E20D7390523093021A
:1001F000F00373B0523073E0513073F002321705E0
:1002000000001305650F970500009385E50E630058
:10021000B502172601001306264663FAC50083229D
:10022000050023A0550011059105E3EAC5FE172539
:10023000010013056544970500189385A5DC170692
:1002400000181306A61063FAC5008322050023A038
:10025000550011059105E3EAC5FE170500181305C1
:10026000E50E972500189385656D6377B50023200B
:1002700005001105E36DB5FEEF90806F17B5000026
:100280001305E5D9EFA0B058EFA0905CEF90502196
:1002900097520000938202EF739052309302F00362
:1002A00073B0523073E0513001458145E524EF9041
:1002B000702901A0130000001300000013000000CB
:1002C00073005010F5BF00000000000000000000A7
:1002D000000000000000000000000000000000001E
:1002E000000000000000000000000000000000000E
:0402F000000000000A
:10030000411117250100130525BB06C6EF209032C9
:10031000EF20D04D9547654793060020014697A5ED
:1003200000009385257F172501001305A5B9EF402F
:10033000201C19C1EF408008B24001454101828074
:10034000000000001705001803254500828000000A
:1003500017070018130787FF1C43411106C68507BE
:100360001CC3EF4020057C4DFD177CCD91C7B240EA
:1003700041016F40607701003C4D7CCDEF4040274C
:10038000B24041016F40407600000000014582808C
:1003900000000000014582800000000001458280CD
:1003A0000000000001458280000000009727010046
:1003B0009387C70D172701001307C70D63FFE70CCD
:1003C000172701001307F70C1D8F4111719B4AC0BD
:1003D0001359270022C426C2172401001304440B1A
:1003E00006C61379790097070000938767FBB3046B
:1003F000870063040908829705471C401724010001
:1004000013044409630BE9060947630AE9020D472F
:100410006304E9021147630EE90015476308E90028
:1004200019476315E90682971C40110482971C4006
:10043000110482971C40110482971C40110482977A
:100440001C4011048297630D94021C4013040402A3
:100450008297832744FE8297832784FE829783278F
:10046000C4FE8297832704FF8297832744FF8297E5
:10047000832784FF82978327C4FF8297E31794FC26
:100480002244B2409244024941019DBD82971C40E2
:10049000172401001304440079B79DB50000000043
:1004A00097270100938707FE17270100130707FE10
:1004B00063FFE70C17270100130737FD1D8F41115C
:1004C000719B4AC01359270022C426C21724010079
:1004D000130484FB06C613797900970700009387FD
:1004E000A7EBB304870063040908829705471C4003
:1004F00017240100130484F9630BE9060947630A12
:10050000E9020D476304E9021147630EE90015474C
:100510006308E90019476315E90682971C40110436
:1005200082971C40110482971C40110482971C4042
:10053000110482971C4011048297630D94021C40A1
:10054000130404028297832744FE8297832784FE44
:1005500082978327C4FE8297832704FF829783278D
:1005600044FF8297832784FF82978327C4FF829763
:10057000E31794FCB2402244924402494101828034
:1005800082971C4017240100130484F079B78280FD
:1005900000000000411106C622C4EF40303CEF408D
:1005A000F03BEFA02053EF203011EF40E06DEF3033
:1005B0006066EF30F0388566D1472947938606801C
:1005C0000146970500009385A5DE17F50000130589
:1005D0006576EF30F0712A8411CD2285EF30105E00
:1005E000EF40406BB12BEF30A069B240224401458F
:1005F000410182801306300D97F500009385057543
:1006000017F5000013058573EF205016F9B70000A9
:100610005DC501114EC652C456C206CE22CC26CAB2
:100620004AC8AA8AAE89328AEF30D05819C1EF3051
:1006300030062145EF3080202A892DC5032449004A
:10064000110963162401B9A0004063052405930431
:1006500044FF2146CE852685EF00D06175F5EF3049
:10066000705519C1EF30D00485EC56854E86A145F2
:10067000EF3080240145239C4A01238E0A00239DEC
:100680000A00F2406244D2444249B249224A924AA4
:1006900005618280EF30105269D9EF307001F1B7F7
:1006A0007D55C5B71306A00897F500009385857E94
:1006B00017F500001305C56AEF20500B41B77D55B3
:1006C0008280000001114EC606CE22CC26CA4AC83E
:1006D000AA89EF30304E19C1EF30807B2145EF30D1
:1006E000E0152A8931C50324490011096317240143
:1006F00015A80100004063072403930444FF21462A
:10070000CE852685EF00105775F5EF30B04A19C138
:10071000EF30007AF24062444249B2492685D24421
:1007200005618280EF301049AA846DD58144CDB730
:100730001306A00897F500009385C57517F500000E
:1007400013050562EF20900279BF0000411122C419
:100750004AC006C626C22A842E8961C12285EF308E
:10076000E047A147630EF5001306301097F500002F
:100770009385457117F5000013050561EF20007F93
:100780008357840113F7070109EF1C5489C7228599
:100790008297AA8445E18357840193E70701231CCC
:1007A000F400A18B95E35C54B5C3CA85228582977A
:1007B000AA840DC1E957630FF500B24022440249F3
:1007C00026859244410182808357A401A18BE1DFF9
:1007D000E554E5B78355A4018347C40193E585003B
:1007E000231DB400850793F7F70F230EF400F1F7EC
:1007F0001306101397F500009385C56817F50000E0
:1008000013054562EF2080764DBF01008565938515
:10081000F5F08144B375B900C1B71306201097F500
:1008200000009385256617F500001305E554EF20B9
:10083000E0732DB72A86A28517F500001305055B26
:10084000EF20405F9DBF0000411122C406C62A84EC
:100850002DC12285EF308038A147630EF5001306C5
:10086000401497F500009385E56017F50000130527
:10087000A551EF20A06F8347C401A9CBFD1793F7C3
:10088000F70F230EF4008DE31C5889CF2285829741
:1008900011C9E9576314F500231D0400B240224436
:1008A000410182800145CDBFB24022440145410152
:1008B00082801306301497F500009385A55B17F529
:1008C00000001305654BEF20606A61B77D55F9B7ED
:1008D000011122CC26CA4AC84EC606CE2A84AE844E
:1008E0003289B68925C12285EF30402FA147630E9A
:1008F000F5001306E01697F500009385A55617F549
:10090000000013056548EF2060668347C40185CB6E
:100910005C5881CF22856244F240CE864A86B24935
:100920004249A685D244056182876955412BF24030
:100930006244D2444249B2490145056182807D55F5
:10094000B52BF5B71306D01697F5000093858551A2
:1009500017F5000013054542EF20406169B700001C
:10096000011122CC26CA4AC84EC606CE2A84AE84BD
:100970003289B68925C12285EF304026A147630E12
:10098000F5001306501997F500009385A54C17F54F
:1009900000001305653FEF20605D8347C40185CBF0
:1009A0001C5C81CF22856244F240CE864A86B249E1
:1009B0004249A685D2440561828769550123F240E8
:1009C0006244D2444249B2490145056182807D5565
:1009D000F521F5B71306401997F500009385854773
:1009E00017F5000013054539EF20405869B700009E
:1009F000411122C426C206C62A84AE8415C92285A6
:100A0000EF30C01DA147630EF5001306001D97F5DA
:100A100000009385654217F500001305E536EF20C9
:100A2000E05404D0B2402244924401454101828006
:100A30001306F01C97F500009385054017F500009C
:100A400013058533EF2080525DBF0000797126D2F7
:100A500052CC56CA5AC85EC662C406D622D44AD000
:100A60004ECE97FA0000938AEA4617FC0000130C5A
:100A70006C43970B0100938BEB8E054A138B819788
:100A800093844187138481961C40110491C38297FB
:100A9000E31C64FF9C4063919706EDB72285EF400D
:100AA000606CEF40A06B9C408040AA89638F9706E2
:100AB0005C4018401309C4FE5CC398C340C000C02A
:100AC000EF30003D3C5C4A8599C382974A85EF3000
:100AD000A05C4A85EF30400D630C4505EF30403D8A
:100AE0004E85EF4020684848EF20100F4A85EF30D0
:100AF00020049C40E38897F8EF4040662A844D2EFE
:100B000051DDD6856285EF20E0321306700AD68566
:100B10005E85EF20A0452285EF40C064EF40006471
:100B20009C408040AA89E39597F8EF40A06399BF65
:100B3000EF3000384E85EF40E062A9B700000000BA
:100B4000411122C41384418D2285930800027D48FF
:100B5000930700101387819781461706000013063C
:100B600026EF97F500009385653606C6EF30C07016
:100B700022852244B24041016F3050040000000041
:100B8000011122CC26CA4AC84EC606CE2A84AE8996
:100B90003289B68415C522854E868545EF20D05111
:100BA00093074401A3049400231E2401F2401CCCAB
:100BB0005CC86244D2444249B24901450561828021
:100BC0001306800D97F500009385054017F500008A
:100BD0001305C531EF2080397DBF0000797122D423
:100BE00006D626D24AD04ECE52CC2EC62A846301D7
:100BF00005162285EF20907E8547630EF5001306CB
:100C0000501597F500009385653B17F50000130517
:100C1000E52EEF20A03583A7018699C32285829710
:100C2000EF40C0538357C4012A8963990710B24724
:100C300063840716EF408052AA84EF30A0776306E2
:100C40000512EF40A051AA89A52469E14E85EF4025
:100C500060512685EF400051EF30C0752328050212
:100C6000034A9400AA8493094401EF30701E630381
:100C70000A0885476316FA025C48638DF90683C645
:100C8000540321A09C436387F90603C71702E3FBC3
:100C9000E6FED4431387440198C294CCD8C3DCC881
:100CA000B2476347F0024A85EF40C04BEF30000087
:100CB000885819E583A7C185D1CB22858297014544
:100CC000B250225492540259F249624A45618280DC
:100CD00093890406700081454E85EF30F0564E85AD
:100CE000EF30903C4A85EF40E047EF20307C885859
:100CF00071D1F9B7184C938744011CC398CC1CCC14
:100D0000B24723AA3401E350F0FAD9B797F50000AF
:100D10009385C52A17F500001305C518EF2080112B
:100D20001306501797F500009385452917F5000025
:100D300013054563EF20802311BF0100FD17231E1B
:100D4000F400EF40204283A7C185A5FB01458DBF7C
:100D50001306401597F500009385452617F500000A
:100D60001305C518EF20802069B597F5000093851D
:100D7000E52417F500001305E51FEF20A00B13066F
:100D8000501797F500009385652317F500001305AC
:100D9000655DEF20A01D75B5EF40C03C79550DB7DE
:100DA00000000000411122C406C626C22A8425CDB7
:100DB0002285EF20B0628547630EF5001306201CE4
:100DC00097F500009385851E17F5000013050513A0
:100DD000EF20C01983A7818599C322858297EF40B0
:100DE000E037584893074401AA846301F7021305CA
:100DF000C7FEEF3030102685EF40C036EF20106B75
:100E0000B240224492440145410182808357C4018B
:100E10008507231EF400EF40E034B24022449244A0
:100E20000145410182801306101C97F5000093854F
:100E3000E51717F500001305650BEF2020138DBF94
:100E4000411122C406C6EF40603197F7FF1783C7F0
:100E5000A750850717F7FF172300F75097F7FF17DD
:100E600083A7074F2A8491C3829722852244B240E8
:100E700041016F40202F0000411122C406C6EF40FF
:100E8000E02D97F7FF1783C7274DFD1717F7FF17BB
:100E90002304F74C97F7FF1783A7C74B2A8491C306
:100EA000829722852244B24041016F40A02B00006E
:100EB00017F5FF170345454A82800000411122C4FF
:100EC00006C62A84F53709C9B24097F7FF1723A74A
:100ED0008748224441018280EF30C04D75D5B24031
:100EE00000D9224441018280000000008D4863F750
:100EF000C810937735006399071893F7F50F139788
:100F00008700D98F13970701BD465D8F63FFC61811
:100F1000130806FF137808FFC286918285064108F0
:100F20009D8AAA872A98B5C2054363896604094346
:100F300063816604638A16039148638216039548A9
:100F4000638A16019948639B161598C3D8C398C73E
:100F5000D8C7C10798C3D8C398C7D8C7C10798C313
:100F6000D8C398C7D8C7C10798C3D8C398C7D8C72C
:100F7000C10798C3D8C398C7D8C7C10798C3D8C3F7
:100F800098C7D8C7C1076306F80498C3D8C398C7E1
:100F9000D8C798CBD8CB98CFD8CF98D3D8D398D719
:100FA000D8D798DBD8DB98DFD8DFB8C3F8C3B8C789
:100FB000F8C7B8CBF8CBB8CFF8CFB8D3F8D3B8D7F9
:100FC000F8D7B8DBF8DBB8DFF8DF93870708E31E54
:100FD000F8FA9376C6003D8A9DC298C39306C6FF71
:100FE0000D486378D800D8C3930886FF637318014F
:100FF00098C7F19A9106B6970D8A11A0AA87130790
:10100000F6FF41CE05079376770093F5F50F3E97EF
:10101000B9C605466380C6040946638AC6020D4602
:101020006384C6021146638EC60015466388C600F7
:101030001946639FC6042380B70085072380B70045
:1010400085072380B70085072380B70085072380A5
:10105000B70085078507A38FB7FE638FE70223805C
:10106000B700A380B7002381B700A381B700238214
:10107000B700A382B7002383B700A383B700A107FB
:10108000E39FE7FC82800100AA871307F6FF9DBF5C
:101090002380B700850745B78280828018C158C178
:1010A00018C59307050158C54DB5AA873DB700007F
:1010B00063F6A500B387C500636DF50C6300061ADF
:1010C00013777600AA872A9641C385466306D7061A
:1010D0008946630DD7048D466304D7049146630B9C
:1010E000D70295466302D70299466309D70003C722
:1010F00005009307150085052300E50003C70500DB
:1011000085078505A38FE7FE03C7050085078505CD
:10111000A38FE7FE03C7050085078505A38FE7FEBC
:1011200003C7050085078505A38FE7FE03C70500F4
:1011300085078505A38FE7FE03C70500850785059D
:10114000A38FE7FE638BC71003C70500A105A107A6
:10115000238CE7FE03C795FFA38CE7FE03C7A5FF1B
:10116000238DE7FE03C7B5FFA38DE7FE03C7C5FFC9
:10117000238EE7FE03C7D5FFA38EE7FE03C7E5FF77
:10118000238FE7FE03C7F5FFA38FE7FEE39EC7FAB1
:1011900082803307C5006DDEB306A7409D8AADCAC5
:1011A0000546638FC60409466386C6040D46638DF3
:1011B000C60211466384C6021546638BC6001946F3
:1011C000639FC60883C6F7FF7D17FD172300D7006E
:1011D00083C6F7FF7D17FD172300D70083C6F7FFEF
:1011E0007D17FD172300D70083C6F7FF7D17FD1776
:1011F0002300D70083C6F7FF7D17FD172300D70014
:1012000083C6F7FF7D17FD172300D7006300E506AF
:1012100083C6F7FFE1176117A303D70083C66700F2
:101220002303D70083C65700A302D70083C6470015
:101230002302D70083C63700A301D70083C6270047
:101240002301D70083C61700A300D70083C6070079
:101250002300D700E31EE5FA82808280828083C665
:10126000F7FF7D17FD172300D700A9BF828000007C
:101270006308061613777600AA871308F6FF45CB96
:101280008546630BD7088946630FD7068D466303EF
:10129000D70691466307D7049546630AD702994655
:1012A000630DD70083C60500930715008505A38F3E
:1012B000D7FE2A8763880612428683C605003E87CA
:1012C00085052380D7008507638E06107D1683C6AB
:1012D00005003E8785052380D700850763840610B7
:1012E0007D1683C605003E8785052380D7008507C8
:1012F000F5CA7D1683C605003E8785052380D70085
:101300008507EDC27D1683C605003E8785052380CF
:10131000D7008507E1CA7D1683C605003E8785058F
:101320002380D7008507DDCE7D166304061403C82D
:1013300005003E878507A38F07FFBE866304080A62
:1013400083C815003E877D162380170185073288E4
:10135000638A080883C825003E877D16A38016018E
:10136000938726006380080883C835003E871306EC
:10137000E8FF23811601938736006385080683C83A
:1013800045003E871306D8FFA381160193874600C8
:10139000638A080483C855003E871306C8FF23826A
:1013A000160193875600638F080283C865003E8745
:1013B000A105A3821601938766001306B8FF638315
:1013C000080283C8F5FF3E871306A8FF2383160192
:1013D0009387760063880800130698FF29FA8280B5
:1013E000828001009306F6FFE5DE3A963307F64069
:1013F0001D8B39C785466300D7048946630AD70227
:101400008D466304D7029146630ED7009546630864
:10141000D7009946631AD7042380070085072380E5
:1014200007008507238007008507238007008507BD
:101430002380070085078507A38F07FE638AC702FD
:1014400023800700A380070023810700A3810700F2
:1014500023820700A382070023830700A3830700DA
:10146000A107E39FC7FC82802380070085076DB733
:101470008280828063000618937776002A96F9C3EB
:1014800005476383E70A09476384E7080D476385D7
:10149000E70611476384E70415476383E7021947AA
:1014A000639EE71483C70500034705008505B3075E
:1014B000F740E207E187639107140505630C071203
:1014C00083C70500034705008505B307F740E2071A
:1014D000E187639307120505630E071083C70500B4
:1014E000034705008505B307F740E207E1876395E9
:1014F000071005056300071083C7050003470500B3
:101500008505B307F740E207E187FDE705057DC3E1
:1015100083C70500034705008505B307F740E207C9
:10152000E187F9EB050579C70347050083C7050087
:101530008505B307F740E207E187DDEF05055DCBE1
:10154000630AC50A8346050083C705001387150093
:10155000B387F640E207E187C5E313081500D9CA4F
:101560008346150083C71500B387F640E207E1877D
:10157000C1E7C9C28346250083C72500B387F6406B
:10158000E207E187B5EBBDC68346350083C735006A
:10159000B387F640E207E187A5E3A9CE834645007D
:1015A00083C74500B387F640E207E187B1E7B9C2D8
:1015B0008346550083474700B387F640E207E1873B
:1015C00085EF8DCA8346580083475700B387F6409E
:1015D000E207E18795E399CE9305770083C7F5FF8E
:1015E00003476800B307F740E207E18791E7130577
:1015F000780039F7014582803E85828083C70500E7
:10160000034705008505B307F740E207E187EDF7DB
:101610000505E31907E8F9BF83470500A1CFAA87AD
:1016200083C6170085073E87B9C283C617008507A2
:101630009DCE834627009307270095CA834637002F
:10164000930737008DC6834647009307470085C23E
:10165000834657009307570099CA8346670093074C
:10166000670091C68346770093077700D5FA3385E4
:10167000A7408280AA87E5BF00000000FD1533085F
:10168000B5006373A8007D5803430600631403008C
:101690006F100059B79798005D719387F7673EC444
:1016A000B7E7F5059387F70F56DC5ADA5ED862D6AE
:1016B000896B416C616BB74A0F003EC6B7D79A3B46
:1016C0006ED0A2C6A6C4CAC2CEC052DE66D46AD24A
:1016D0002A879305B00293080002930E3002130F7D
:1016E000000397F300009383638F7D1C938BFB7043
:1016F000130BFB69938AFA23938DF79F31A801009E
:101700006364E80023006700B287050703C317007E
:10171000138617006309030C93075002E312F3FECC
:1017200003431600130ED002814F93071600630582
:10173000C30301006306B30263081303630AD30300
:10174000631CE30393EF1F003E8601000343160072
:1017500093071600E310C3FF93EF0F013E86FDB71A
:1017600093EF4F003E86DDB793EF8F003E86F9BFC3
:1017700093EF0F023E86D9BF130403FDA5421A8ED4
:1017800063FA820A130EA0026302C31B7D5913067B
:10179000E002630EC3067D5E1376B30F93028006EC
:1017A00063025602130450028142130683FA630651
:1017B00083021376F60F63E5C8180A061E961042D8
:1017C0001E96028603C617009A82130450023283C3
:1017D0008507130683FAE31E83FC6364E800230095
:1017E0006700050725B7E370E87E2300080036444C
:1017F000A64416498649725AE25A525BC25B325C71
:10180000A25C125D825D3305A7406161828003C6E0
:101810001700254E13841700930206FD3283E37AE6
:101820005E7E1306A0026314C3006F10600FA287D0
:10183000014E9DB7014925441316290003C3170023
:101840003299060985077299130E03FD3E86130926
:1018500009FDE36EC4F3131E2900729906091A9953
:10186000130909FD03C31700131E29004A9E060E23
:10187000930203FD85071A9EE36B54F00343260091
:1018800013090EFD131E29004A9E060E930203FD46
:10189000930726001A9EE36C54EE034336001309A7
:1018A0000EFD131E29004A9E060E930203FD9307A8
:1018B00036001A9EE36D54EC0343460013090EFDF7
:1018C000131E29004A9E060E930203FD930746004D
:1018D0001A9EE36E54EA0343560013090EFD131ECD
:1018E00029004A9E060E930203FD930756001A9E96
:1018F000E36F54E813090EFD03436600131E29002D
:101900004A9E93121E00130E03FD93076600E360C8
:10191000C4E9034E760016939307760013060EFD76
:10192000130903FD7283E379C4F095B503A906009A
:10193000930726009106634709020343260081BDF1
:101940006366E800130650022300C70003C60700C1
:1019500013031700E30D067E63646800A300C7004D
:1019600009076DB3034326003309204193EF0F01AC
:1019700039BDA94993EF2F001306C006E387C2665D
:101980001306800603AA0600E386C266910613F6D4
:101990000F045283FE82E312066217F6000013065C
:1019A000668913F40F01E302046093F2EFFF13045E
:1019B000000293FF2200E38D0F06E3470A6493FFC2
:1019C0004200E3990F7693FF8200E3830F069304AE
:1019D0000002E3120A06854F2308E1016353FE016A
:1019E0007E8E93F912013306C941E390091EE38DFF
:1019F000040EE354C05A1309F6FF930CE6FF631478
:101A000009006F1080394A866F00900E93FF0F0116
:101A100063940F006F1080024A86938F46006365BF
:101A2000E80094422300D700054E09448D42130379
:101A300017006344CE006F10E01D3297B306674075
:101A40009D8AADC6638DC60563868604638F560284
:101A500011466387C6021546638FC6001946638721
:101A6000C600636468002300130105036364680013
:101A700023001301050363646800230013010503B9
:101A80006364680023001301050363646800230096
:101A900013010503636468002300130105036364F5
:101AA00068002300130105036304E3066364680010
:101AB00023001301930613006364D800A3001301ED
:101AC000138616006364C800A380160113862600DF
:101AD0006364C80023811601138636006364C8005E
:101AE000A3811601138646006364C8002382160191
:101AF000138656006364C800A3821601138666002D
:101B00006364C8002383160113837600E310E3FAAD
:101B1000FE86EDBEC14993EF0F04B9BDA949A9BD29
:101B200083A206009106E385027003C6020019E253
:101B30006F1080221686034416000506328339C0D2
:101B40000344160005061DCC03442300130623009E
:101B500015C803443300130633000DC40344430087
:101B60001306430005C0034453001306530019C86D
:101B7000034463001306630011C403447300130697
:101B8000730055F81684B282B38282406355C00157
:101B900063535E00F28293FF0F0163940F006F1096
:101BA000000A4A8E635F500E636CE80E9384F2FF66
:101BB000BA9463739800C28403430400B38FE44073
:101BC000130617002300670093FF7F001303140020
:101BD00063E8C40C63820F08054963872F0709492E
:101BE000638E2F050D4963852F051149638C2F03E3
:101BF000154963832F031949638A2F01834F03001B
:101C0000130324002300F60113062700834F03006B
:101C100005060503A30FF6FF834F03000506050322
:101C2000A30FF6FF834F030005060503A30FF6FF7E
:101C3000834F030005060503A30FF6FF834F030040
:101C400005060503A30FF6FF834F030005060503F2
:101C5000A30FF6FF63E6C404834F030021062103AC
:101C6000230CF6FF834F93FFA30CF6FF834FA3FFD4
:101C7000230DF6FF834FB3FFA30DF6FF834FC3FF82
:101C8000230EF6FF834FD3FFA30EF6FF834FE3FF30
:101C9000230FF6FF834FF3FFA30FF6FFE3FEC4FA13
:101CA0001697E3D5C2A733035E40137673008542CF
:101CB000894F0D4E3A932DC6630D56046306F60503
:101CC000630FC603114E6307C603154E630FC601AB
:101CD000194E6307C6016364E80023001701050776
:101CE0006364E8002300170105076364E80023002C
:101CF000170105076364E800230017010507636403
:101D0000E8002300170105076364E80023001701BA
:101D100005076364E800230017010507E308679ED1
:101D20006364E80023001701130617006364C8000A
:101D3000A3001701130716006364E800A30016014F
:101D4000130726006364E800230116011307360019
:101D50006364E800A3011601130746006364E8000A
:101D600023021601130756006364E800A30216015C
:101D7000130766006364E800230316011307760067
:101D8000E31067FA61B27D56E30DC93C13F30F010E
:101D900090429106E310033E13F31F006314030007
:101DA0006F10A00213040003E31C063C0543230844
:101DB000E10163536E001A8E93F21F013306C9418D
:101DC000E394026693747600854C094A8D49930228
:101DD000F6FF635CC00C3309C700ADC4638D940586
:101DE00063864405638F340311466387C402154636
:101DF000638FC40019466387C4006364E80023004E
:101E0000170105076364E8002300170105076364F1
:101E1000E8002300170105076364E80023001701A9
:101E200005076364E8002300170105076364E80001
:101E30002300170105076364E80023001701050765
:101E4000630427076364E8002300170113061700E3
:101E50006364C800A3001701130716006364E80059
:101E6000A3001601130726006364E800230116018E
:101E7000130736006364E800A30116011307460048
:101E80006364E80023021601130756006364E80048
:101E9000A3021601130766006364E800230316011A
:101EA00013077600E31027FBFD5293FF0F016394A5
:101EB0000F0E13F67200854909498D44938FF2FF86
:101EC000E356506CBA922DC6630D3605630626059F
:101ED000630F9602914F6307F603954F630FF60168
:101EE000994F6307F6016364E80023008700050744
:101EF0006364E8002300870005076364E8002300AB
:101F0000870005076364E800230087000507636412
:101F1000E8002300870005076364E80023008700CA
:101F200005076364E800230087000507630457067C
:101F30006364E80023008700130617006364C80089
:101F4000A3008700130716006364E800A30086005F
:101F5000130726006364E800230186001307360098
:101F60006364E800A3018600130746006364E80089
:101F700023028600130756006364E800A30286006C
:101F8000130766006364E8002303860013077600E6
:101F9000E31057FAFD526351C30F330E6E401376B0
:101FA0007E00854409448D4F3A9E2DC6630D9604EC
:101FB00063068604630FF603914F6307F603954F9C
:101FC000630FF601994F6307F6016364E80023008D
:101FD000E70105076364E8002300E7010507636480
:101FE000E8002300E70105076364E8002300E70138
:101FF00005076364E8002300E70105076364E80060
:102000002300E70105076364E8002300E7010507F3
:102010006304C7076364E8002300E70113061700A1
:102020006364C800A300E701130716006364E800B7
:10203000A300E601130726006364E8002301E6011C
:10204000130736006364E800A301E60113074600A6
:102050006364E8002302E601130756006364E800A6
:10206000A302E601130766006364E8002303E601A8
:1020700013077600E310C7FB1306F3FF6369E8005C
:102080000010330EC400034E0EFF2300C701930F50
:102090001700130EE3FF55CA6368F801101072961B
:1020A000034606FFA300C70013062700930FD3FFC4
:1020B000635DC0096368C80010107E96034606FF82
:1020C0002301C700130E37001306C3FF635FF00739
:1020D0006369C8010010330EC400034E0EFFA30154
:1020E000C701930F4700130EB3FF6350C006636828
:1020F000F80110107296034606FF2302C700930FE3
:1021000057001306A3FF6352C0056369F80100106E
:10211000330EC400034E0EFFA302C701930F6700E6
:10212000130E93FF6353C0026368F8011010729698
:10213000034606FF2303C7000544930F77001306E9
:1021400083FF63148E00E37DF83F13F672000544AD
:10215000894F0D4E1A97635B50DABA922DC6630D04
:1021600086046306F605630FC60311436307660220
:102170001543630F66001943630766006364E80054
:102180002300170105076364E80023001701050712
:102190006364E8002300170105076364E800230077
:1021A000170105076364E80023001701050763644E
:1021B000E8002300170105076364E8002300170106
:1021C0000507630557D46364E8002300170113066D
:1021D00017006364C800A3001701130716006364A7
:1021E000E800A3001601130726006364E80023013A
:1021F0001601130736006364E800A30116011307F4
:1022000046006364E8002302160113075600636466
:10221000E800A3021601130766006364E8002303C5
:10222000160113077600E31057FA6FF02FCE010066
:10223000814463020AFAA94FE38AF90F937FF300FE
:10224000B29F03CA0F009359430093FFF90023087C
:102250004101B29FE38D091C03CA0F00935983000B
:1022600093FFF900A3084101B29FE386091C03CA4A
:102270000F009359C30093FFF90023094101B29F56
:10228000E38C092A03CA0F009359030193FFF90055
:10229000A3094101B29FE38C092C03CA0F00935993
:1022A000430193FFF900230A4101B29FE382092A07
:1022B00003CA0F009359830193FFF900A30A410158
:1022C000B29FE38A092A83CF0F001353C3011A96E2
:1022D000230BF101E305032A034606001D43A14F2A
:1022E000A30BC1006FF08FEF930CF6FFE35DC028E6
:1022F00013797600054A094DB309C700630309063F
:10230000630C49056305A9050D4A630D4903114A8C
:1023100063054903154A630D4901194A63054901DB
:10232000E37FE82205076364E8002300170105073F
:102330006364E8002300170105076364E8002300D5
:10234000170105076364E8002300170105076364AC
:10235000E800230017010507637BE85C05076304B9
:1023600037076364E800230017011309170063644B
:102370002801A3001701130719006364E800A300F4
:102380001901130729006364E800230119011307E9
:1023900039006364E800A30119011307490063646D
:1023A000E80023021901130759006364E800A3023F
:1023B0001901130769006364E80023031901130777
:1023C0007900E31037FB3386CC406399043C93F2E9
:1023D00002016395020E93727600854409498D4986
:1023E000130AF6FFE357C0143A9663860206638D1C
:1023F000920463862205638F3203914463879202BD
:102400009544638F92009944638792006364E80067
:102410002300870005076364E800230087000507A1
:102420006364E8002300870005076364E800230075
:10243000870005076364E8002300870005076364DD
:10244000E8002300870005076364E8002300870095
:1024500005076304C7066364E8002300870093024E
:10246000170063645800A300870013871200636499
:10247000E800A3808200138722006364E8002381C0
:102480008200138732006364E800A381820013870F
:1024900042006364E8002382820013875200636471
:1024A000E800A3828200138762006364E80023834C
:1024B000820013877200E310C7FA7D5663D0CF778E
:1024C000330EFE4193727E00854F09448D443A9E3F
:1024D00063860206638DF20563868204638F92022F
:1024E000914F6387F203954F638FF201994F638792
:1024F000F2016364E8002300E70105076364E80074
:102500002300E70105076364E8002300E7010507EE
:102510006364E8002300E70105076364E800230023
:10252000E70105076364E8002300E701050763642A
:10253000E8002300E70105076304C7076364E800B8
:102540002300E701930F17006364F801A300E7017C
:1025500013871F006364E800A380EF0113872F0037
:102560006364E8002381EF0113873F006364E800A0
:10257000A381EF0113874F006364E8002382EF011A
:1025800013875F006364E800A382EF0113876F0085
:102590006364E8002383EF0113877F00E310C7FB28
:1025A0006368C80118101A97034707FF2300EE005D
:1025B000930F1E001307F3FF630A030E6369F8010C
:1025C0000010B30FE40083CF0FFFA300FE019302BE
:1025D0002E00930FE3FF635BE00C63685800181054
:1025E0007E97034707FF2301EE0093023E00130787
:1025F000D3FF635DF00B636958000010B30FE40074
:1026000083CF0FFFA301FE0193024E00930FC3FF80
:10261000635EE0086368580018107E97034707FF61
:102620002302EE0093025E001307B3FF6350F0092C
:10263000636958000010B30FE40083CF0FFFA302BB
:10264000FE0193026E00930FA3FF6351E0066368DF
:10265000580018107E97034707FF2303EE009302EC
:102660007E00130793FF6353F00563695800001061
:10267000B30FE40083CF0FFFA303FE0193028E008C
:10268000930F83FF6354E0026368580018107E972D
:10269000034707FF2304EE00054713049E0093023F
:1026A00073FF6395EF006376882601000503937F2F
:1026B0007600854209448D447293635EC0543307AB
:1026C000C30063880F06638D5F0463868F04638F86
:1026D0009F0211466387CF021546638FCF001946CC
:1026E0006387CF00636468002300130105036364FC
:1026F00068002300130105036364680023001301CD
:102700000503636468002300130105036364680024
:10271000230013010503636468002300130105030C
:10272000636468002300130105036314E3006FE092
:10273000FFFD636468002300130113061300636444
:10274000C800A30013011303160063646800A3000C
:1027500016011303260063646800230116011303A6
:10276000360063646800A301160113034600636426
:102770006800230216011303560063646800A30275
:102780001601130366006364680023031601130334
:102790007600E310E3FA6FE07FF77D166365E800EB
:1027A000230097007D1605071DB193FF1F0063826C
:1027B0000F62130400036FF0CF9F17E600001306AB
:1027C00026A66FF00F9E230007003644A644164944
:1027D0008649725AE25A525BC25B325CA25C125D5D
:1027E000825D3305A7406161828003AA06009106DD
:1027F0006FF0EF9913F62F00910663060614420A54
:10280000135A0A416FF0AF989304D002330340414A
:102810001DB4A287014EA54213132E0083C41700D6
:102820001A9E060E8507329E138604FD3E83130E04
:102830000EFD63EAC20C13162E0003C41700329E6D
:10284000060E269E130604FD8507130E0EFD63EC8F
:10285000C20A93172E00034623003E9E060E229EB8
:10286000130406FD93072300130E0EFD63ED82088B
:1028700093172E00034433003E9E060E329E13062D
:1028800004FD93073300130E0EFD63EEC20693178B
:102890002E00834443003E9E060E229E138604FDB6
:1028A00093074300130E0EFD63EFC20493172E002F
:1028B000034653003E9E060E269E130406FD930714
:1028C0005300130E0EFD63E0820493172E000344A1
:1028D00063003E9E060E329E130604FD93076300BE
:1028E000130E0EFD63E1C20293172E000346730020
:1028F0003E9E060E229E130406FD93077300130EE0
:102900000EFDE3FB82F0634B0E0203C307006FE092
:10291000BFE81810BA9203C702FFA304EE0079B310
:1029200003AE060089079106E3510EFE01A82300BD
:1029300017012DB49304B0026FF0AF8903C30700F1
:10294000014E6FE07FE5337A8A016FF04F841A877A
:10295000FD176FE0BFDBA1496FF00F82C1496FF037
:10296000AF8113F30F01904293EF1F0091062149AD
:10297000630A03C293FFEFFF13040002630806C259
:1029800017E300001303038B9372F6009A9283C936
:1029900002009354460093F2F400230831019A9206
:1029A000638E044083C902009354860093F2F400BE
:1029B000A30831019A92638D043E83C902009354A7
:1029C000C60093F2F400230931019A92638F043C0C
:1029D00083C902009354060193F2F400A309310164
:1029E0009A926381043C83C902009354460193F296
:1029F000F400230A31019A926383043A83C90200E6
:102A00009354860193F2F400A30A31019A926384ED
:102A1000043A83C2020071823293230B5100630592
:102A20000634034603002143A30BC1006FF06FB8C7
:102A300097D200009382025A6FF0CF8F1306F9FFEE
:102A40006344C0006FE07FFD137376008542894FB9
:102A50000D4E3309C70063060306630D5304630676
:102A6000F305630FC30311466307C3021546630FE3
:102A7000C30019466307C3006364E800230017011D
:102A800005076364E8002300170105076364E80095
:102A90002300170105076364E800230017010507F9
:102AA0006364E8002300170105076364E80023005E
:102AB000170105076364E800230017010507630495
:102AC00027076364E80023001701130617006364F7
:102AD000C800A3001701130716006364E800A300F1
:102AE0001601130726006364E8002301160113078B
:102AF00036006364E800A30116011307460063640F
:102B0000E80023021601130756006364E800A302DD
:102B10001601130766006364E80023031601130718
:102B20007600E31027FB01466FE03FEFB37F3303EE
:102B3000254D930C3006B29F83CF0F00335A3303D9
:102B40002308F10163756D0EB37F3A03B29F03CD85
:102B50000F00335A3A03A94FA308A10163FD6C0C7F
:102B6000B37C3A03B29C83CC0C00335A3A0323095A
:102B70009101930C703E63F16C1CB37C3A03B29CE0
:102B800083CC0C00335A3A03A309910163F16B1E05
:102B9000B37C3A03B29C83CC0C00335A3A03230A29
:102BA000910163776B1AB37C3A03B29C83CC0C001F
:102BB000335A3A03A30A910163FF6A1AB37C3A03BA
:102BC000B29C83CC0C00335A3A03230B9101A24CE4
:102BD00063F76C1AB37C3A03B29C83CC0C00335A73
:102BE0003A03A30B9101B24C63F56C1AB37C3A0320
:102BF000B3593A03330A9601034A0A00230C4101F0
:102C000063F16D1C4E96034606002543A30CC100DC
:102C10006FE0DFDCFE861A876FE05FAF3A8E49B265
:102C200023000500098D8280B2826FF00FA8014356
:102C3000854F6FE0BFDA0543894F6FE03FDA33031A
:102C4000594013767300854989448D4F130EF9FF5F
:102C500063C422016FE01FF53A932DC6630D36055C
:102C600063069604630FF603914F6307F603954FCF
:102C7000630FF601994F6307F6016364E8002300D0
:102C8000170105076364E800230017010507636463
:102C9000E8002300170105076364E800230017011B
:102CA00005076364E8002300170105076364E80073
:102CB0002300170105076364E800230017010507D7
:102CC000630467066364E800230017011306170016
:102CD0006364C800A3001701130716006364E800CB
:102CE000A3001601130726006364E8002301160100
:102CF000130736006364E800A301160113074600BA
:102D00006364E80023021601130756006364E800B9
:102D1000A3021601130766006364E800230316018B
:102D200013077600E31067FA33862241329E6FE084
:102D30007FE752866FF08FF809438D4F6FE01FCA0F
:102D400000102296034606FFA303C7006FF0EFBFF3
:102D50001143954F6FE09FC816846FE0FFE2230098
:102D6000170105076FF02FDC1D436FF08F840D43B3
:102D7000914F6FE0BFC61543994F6FE03FC61943AF
:102D80009D4F6FE0BFC566866FF06FE4FE826FF007
:102D90008FA01D43A14F6FE07FC4668601B4154329
:102DA0006FF02F8111436FF0CF800D436FF06F8074
:102DB00009436FF00F8019436FE0BFFF05436FE0D9
:102DC0005FFF2143A54F6FE07FC1130400026FE056
:102DD000BFFD130400026FE0DFBD000017D5FF1731
:102DE0000325055882800000411126C297D4FF17A1
:102DF000938404574AC006C622C403A90400EFD036
:102E00007F8C01CD2A84884019C1EFD0FFA39305A0
:102E100030042285EFD09F9380C0B2402244924478
:102E20004A85024941018280000000006F80D06025
:102E3000000000003971130341022ED232D436D67D
:102E40002A869A869305F007138581A722CC3EDA5D
:102E500006CE26CA17D4FF17130484503AD842DC92
:102E600046DE1AC6EFE09F811C409DCF83D4A701A8
:102E70001307F007AA8613E60404239DC7006361C5
:102E8000A7023E85138681A78145EFD07FAD1C4008
:102E9000F2406244239D9700D24421618280010068
:102EA0009306F007F9BF0100138581A74137F2406F
:102EB0006244D24421618280411117D5000013057C
:102EC000251A06C6853F17D500001305251A9D371C
:102ED00017D500001305851C17D700001307471BE3
:102EE000814605468D45B937B24017D50000130518
:102EF000E51C410181B7000021C19377F50F85E7FB
:102F0000C167938707F0E98FB1E7B707FF00E98F43
:102F100095E797D700009387A72061813E950345E9
:102F200005006505828017D700001307671FBA9751
:102F300003C507000505828001458280418597D73A
:102F400000009387E71D1375F50F3E9503450500B7
:102F500045058280218597D700009387671C1375EC
:102F6000F50F3E950345050025058280011106CE2B
:102F7000A307010017D8FF170328C83E6305080000
:102F8000F24005610288B2862E86AA8517D5000018
:102F90001305851545358347F10093F7F70FA1E732
:102FA0008347F10093F7F70F9DEF8347F10093F705
:102FB000F70F95EB8347F10093F7F70F8DE7834702
:102FC000F10093F7F70F85E38347F10093F7F70FCD
:102FD00099EB8347F10093F7F70F91E78347F100EF
:102FE00093F7F70FCDDBF24005618280411197D551
:102FF000FF1783A5653817D500001305E52406C61D
:10300000153D83A5818417D50000130525251D35A1
:10301000B24097D5FF1783A5E53517D500001305F6
:103020002525410101BD0000011122CC26CA4AC854
:103030004EC652C406CE13043500AE892A89EF204D
:10304000E011719893F4C9FF2A8AEFD07FE65DE121
:103050005285EF202011E14763F69700938784FEA5
:1030600063F087026244F240D244224A4E86CA8507
:10307000B249424917D500001305052205615DBB21
:10308000818C8967138744FF938707EAC96658C014
:103090001CC023240400B307E400938606EAD8C3C7
:1030A00098C717D9FF171309692C94C3A114814637
:1030B000054697D500009385A51D138581AF232074
:1030C000890017D7FF172329972A17D7FF17232D12
:1030D000F728EFD0FFAA83270900F240624417D7F0
:1030E000FF172327F728D2444249B249224A0561F3
:1030F0008280010097D500009385454217D50000D6
:10310000130545DA053B1306300D97D5000093856E
:10311000E54017D500001305E524893D15BF0000E3
:10312000011122CC26CA06CE4AC84EC6AA84EF2078
:10313000E0022A84EFD0DFD761E92285EF20800208
:10314000D5C817D4FF17130424231C408D04F1980D
:1031500063E2970AB14763E7F406FD55138581AF33
:10316000EFD0DFA717D3FF17130383200328030033
:103170008328040097D6FF1783A6461FB307D840BD
:103180003386984063F1C7023384F6000357240066
:1031900005EB5840B305F740138545FF637B950861
:1031A000BA87E3E3C7FE138581AFEFD0BFBFF2401C
:1031B00062440149D244B2494A854249056182804C
:1031C0005C40C9B7FD55138581AFEFD03FA117D340
:1031D000FF171303E3190328030083280400B144F5
:1031E00097D6FF1783A68618B307D8403386984032
:1031F00051BF01000149F2406244D244B2494A85BC
:10320000424905618280010097D5000093854530D1
:1032100017D50000130505C931391306601197D57C
:1032200000009385E52E17D500001305A5133D3B3F
:1032300029B7138684016367C5081389C400330561
:10324000F90089653386A600938505EA58C21CC635
:103250000CC248C05C4205472311E400B1086384F6
:103260001701B69788C7138781841C4317D6FF17A9
:10327000130646100C42B107A6971CC363EFF50C6A
:103280008967938707EA2310F4006304880A97D9B3
:10329000FF179389690D138581AFEFD0BFB083A766
:1032A0000900229963EB2707937734001309C400C0
:1032B000A9EB0D881DE883A7418495DFA6854A8583
:1032C000829715BF93878184884317D7FF17130709
:1032D000670A1043AA9505452311A4008CC36373A4
:1032E000B6000CC31389C40061BF1306901897D5AC
:1032F00000009385E52117D500001305E506BD31D3
:103300005DBF1306801897D500009385652017D5FB
:1033100000001305A500993969BF1306701897D5E9
:1033200000009385E51E17D500001305A5FA3D3969
:10333000A5BF8357280097D9FF179389E902A1DF1A
:1033400003A70900630D0701032848003698835737
:103350002800EDFB232003013DBF1CC215B723202D
:10336000E30015BF411122C426C24AC006C6AA8482
:103370002E84EF10B05E2A89EFD09FB315E5338419
:1033800084024A85EF10105E2285593BAA8409C544
:1033900022868145EFD09FB5B2402244024926855E
:1033A000924441018280010097D500009385C514A5
:1033B00017D50000130505AFEFF0DFA71306202196
:1033C00097D500009385451317D50000130585F99F
:1033D000713E75B700000000011122CC26CA06CE4E
:1033E0004AC84EC652C42A84EF105057AA84EFD060
:1033F0003FAC6311051A2685EF10D05639CC937770
:1034000034006391071C97D4FF17938424F69C40E3
:10341000636AF40017D9FF17130909F58327090018
:103420006366F4041306E02297F5000093850524F3
:1034300017D50000130585F9153E83A7018499C3AC
:10344000228582979C40636AF40017D9FF171309FD
:10345000A9F183270900636EF400F2406244D2446C
:103460004249B249224A05618280010083A7018452
:10347000E1FBFD55138581AFEFD04FF6835764FF15
:10348000930944FF81CB035744FF8967938707EA79
:10349000630AF70417D50000130505F9EFF09F99AB
:1034A000835644FF035664FFCE8517D500001305ED
:1034B00065F9EFF03F98835764FF6384071603575D
:1034C00044FF8967938707EA630EF7001306E02439
:1034D00097F500009385851917D50000130545FA67
:1034E000EFF0DFA817DAFF17130A8AE889670327C6
:1034F0000A00938707EA231B04FE231AF4FE63F4F1
:10350000E90023203A0113868184184294408327DE
:1035100084FFB385D9401D8F2E9718C263E1D90C63
:103520000327090063FCE9109840BA976385F90204
:1035300083D627008DE283260900638ED700832679
:103540000A00638AD710D043B386E940232CC4FE17
:10355000DC43BA9794C78326C4FFB307D7006380C0
:10356000F90203D6270001EE03260A006388C90E7C
:10357000032684FFD0C3832784FF3E9714C7624489
:10358000F240D2444249B249224A138581AF0561D3
:103590006FD05F8197F500009385450D17D500002A
:1035A00013054590EFF01F891306902297F5000050
:1035B0009385C50B17D500001305C5DAEFF01F9BE7
:1035C0001DBD01001306D02297F500009385050A62
:1035D00017D50000130545DCEFF05F992DB51306F4
:1035E000200A97D500009385E5F117D50000130553
:1035F000E5EAEFF0BF978327090063F1F9048357E9
:1036000064FF89CF1306400A97D50000938585EFA4
:1036100017D50000130545EDEFF05F95832784FF74
:1036200021B71306D02497F500009385250417D5FC
:103630000000130525E4EFF07F9351B51306300A1F
:1036400097D50000938505EC17D50000130505E715
:10365000EFF0DF916DB723203A01F5B52320FA0092
:1036600001BF0000011122CC26CA4AC852C406CEAE
:103670004EC62A842E8AB284EF10502E2A89EFD0AB
:103680003F83631505104A85EF10D02DA2851D4597
:1036900095262A8475C18D04F19813894400B309D5
:1036A000490344CD232C35014E85EFF07FA748C850
:1036B000630905109307C40223224403232444030F
:1036C0001CD85CD4232A040263090A0E93767A007C
:1036D0000147AA87ADC205466389C60409466382CD
:1036E000C6040D46638BC60211466384C6021546A6
:1036F000638DC60019466386C600B30725010547DA
:103700001CC1BE86CA9705079CC2BE86CA9705071C
:103710009CC2BE86CA9705079CC2BE86CA9705078B
:103720009CC2BE86CA9705079CC2BE86CA9705077B
:103730009CC2630D4703B386270194C3B387260158
:103740009CC2B386270194C3B38726019CC2B3866B
:10375000270194C3B38726019CC2B386270194C373
:10376000B387260121079CC2E31747FDB387294190
:10377000AA9723A0070008D0F24022856244D244D1
:103780004249B249224A05618280010097D5000072
:103790009385C5DC17C500001305C570EFF08FE9F0
:1037A0001306F00C97D50000938545DB17D5000074
:1037B000130545BBEFF08FFBF9B5B3079540F11743
:1037C0004DBF22850144AD2645BF0000411122C4F2
:1037D00026C24AC006C683A7C1840324C5FFAA84A3
:1037E0001309C5FF81C7AA8522858297EF1010179C
:1037F0001C541450585885071CD423AED4FE2320E3
:103800002403AA8401EB2244B240924402494101BC
:103810006F1050154854232E05003115EF00906DA0
:103820005C582685FD175CD8EF10D0132244B240B7
:103830009244024941019DA90000000097C7FF176B
:103840009387477C98436301E504984B6302E50442
:1038500098536301E504985B6300E504B843630F84
:10386000E502B84B630EE502B853630DE502B85BA1
:10387000630CE50203A70708630AE50203A707092B
:103880006308A70201458280014512053E958280AA
:103890000545E5BF0945D5BF0D45C5BF1145F5B780
:1038A0001545E5B71945D5B71D45C5B72145F1BF44
:1038B0002545E1BF0000000097C7FF179387877475
:1038C0009843011122CC4AC84EC606CE26CA2E8481
:1038D0002A89B289638FE508984B6380E50A98537B
:1038E000638FE508985B638EE508B843638DE50850
:1038F000B84B638CE508B853638BE508B85B638A03
:10390000E50803A707086388E50803A70709638696
:10391000E5081306801097D500009385E5CF17C5FD
:1039200000001305E5438144EFF04FE4136404F80D
:10393000230489002146CE854A85EFD07F9383A753
:10394000018599C34A858297EF105001D8409307AB
:10395000C90062445CC32326E900DCC093864400AE
:10396000F240D244B2492328D900424905616F1080
:10397000607F81449204BE9455BF8544E5BF89446D
:10398000D5BF8D44C5BF9144F5B79544E5B799447B
:10399000D5B79D44C5B7A144F1BFA544E1BF000020
:1039A000411122C406C62A841DC583A7418599C337
:1039B0002285829723040400EF10407A544418486B
:1039C0009307C400B240D8C214C31CC85CC42244CC
:1039D00041016F1020791306301397D500009385AD
:1039E00065C217D50000130565B8EFF02FD875BF75
:1039F00000000000011122CC26CA4EC606CE4AC8DD
:103A0000AA84AE89EF1080752A84EFD06FCA79E15D
:103A10002285EF10207597C7FF179387A75E9843FD
:103A20006381E40E984B6382E40E98536381E40E45
:103A3000985B6380E40EB843638FE40CB84B638EED
:103A4000E40CB853638DE40CB85B638CE40C03A7FF
:103A50000708638AE40C03A707096388E40C1306CC
:103A6000A01597D500009385A5B817C500001305CC
:103A7000252F0144EFF08FCF4844EFF06FEA2A89F9
:103A800031C150448145EFD06FC6214623049900CF
:103A9000A3040900CE854A85EFD08FFD83A7018559
:103AA00099C34A858297EF10606B58409307C9000D
:103AB000930644005CC32326E9005CC02328D90098
:103AC000EF10406AF2406244D244B2494A8542490A
:103AD0000561828097D50000938585B117C50000E8
:103AE0001305453CEFF00FB51306601597D50000A0
:103AF000938505B017D500001305C586EFF00FC7F5
:103B000001BF014412043E9485BF0544E5BF09444A
:103B1000D5BF0D44C5BF1144F5B71544E5B71944E9
:103B2000D5B71D44C5B72144F1BF2544E1BF00000E
:103B3000411122C406C62A8439C98307840063CB95
:103B4000070283A7418599C3228582972304040035
:103B5000EF10C060544418489307C400D8C214C37F
:103B60001CC85CC4EF10006022852244B2404101B1
:103B70006FF09F861306501997D50000938505A610
:103B800017D500001305C59FEFF04FBE5DBF1306AC
:103B9000401997D50000938565A417D5000013053B
:103BA000E59CEFF0AFBC51BF411122C406C62A8488
:103BB00001C903058400B24022447D814101828015
:103BC0001306601B97D500009385859F17D50000CD
:103BD0001305C599EFF08FB9E9BF0000411122C468
:103BE00006C62A8409C903458400B24022441375DD
:103BF000F507410182801306901C97D5000093853C
:103C0000E59A17D5000013056596EFF02FB6E1BFD2
:103C10000000000023980186938781B1938681C1BB
:103C2000DCC39CC31387870058C398C71387070159
:103C300058C398CB1387870158C398CF13870702BF
:103C400058C398D31387870258C398D7138707039D
:103C500058C398DB1387870358C398DF93870704FB
:103C6000E390D7FC7D47938741872382E186DCC3BD
:103C700023A4018623AE01869CC38280000000003D
:103C8000411103A5C18706C6EFF00FA77D159387E5
:103C900081B10E053E950841B2409307C5FE23A4AD
:103CA000F186210541016F00307F0000011106CE31
:103CB00022CC26CA4AC84EC6EF10404A83970187D5
:103CC000D9EB2A8903A5C187EFF00FA39307F5FF6E
:103CD00093963700138781B1369704431387818603
:103CE000832907001384C4FE638D89082382F1862B
:103CF00000C383A7C18681C7A2854E85829741C430
:103D0000DC481307300283C60700639FE60498442B
:103D100063FCE704944CBE9663E8E60493870702CD
:103D200063F0E70897C7FF1783C70763938584008D
:103D30001385C90191EFEF10E00F4A85EF10804223
:103D40006244F240D2444249B2490545056169A442
:103D5000EF10C0094A856244F240D2444249B24958
:103D600005616F1020400100A28517D500001305E2
:103D7000E58CEFF02F8CEF20E074EF10203E5DD14A
:103D800001A04A85C9BF1306900597D50000938509
:103D9000A59317D5000013052589EFF02F9D8DB74A
:103DA000A28517D500001305258BEFF0AF889DBFC6
:103DB000411122C406C62A8429C5EF10203A0347C0
:103DC00044038347540313064401419B93963700F1
:103DD00013671700938781B1230AE402B697CC4397
:103DE0009386C187185C90C103A806000CCCD0C391
:103DF0005CC82244B240B36707019CC241016F1006
:103E000060361306201297D500009385258A17D5B2
:103E1000000013056581EFF06F9545B700000000C5
:103E2000411122C406C62A8439C5EF1020331C4C28
:103E3000544813074401DCC294C38347540318CC8D
:103E400058C813973700938781B1BA97984363078F
:103E5000F7002244B24041016F10C0301C5C138750
:103E6000C1871443224493C7F7FFB240F58F1CC3A8
:103E700041016F10202F1306001597D50000938580
:103E8000258117C500001305257AEFF02F8E71BF2D
:103E9000411106C6EF10802C138701878357070056
:103EA000B24085072310F70041016F10A02B0000DE
:103EB000011122CC06CE1384018726CA4AC84EC6F9
:103EC000EF10C02983570400FD17C207C1872310D4
:103ED000F400635BF0006244F240D2444249B249CC
:103EE00005616F102028010023980186EF108027BC
:103EF000EF10C026831704002A89F1FF03A5C187AC
:103F0000EFE09FFF9307F5FF93963700138781B18A
:103F10003697044313878186832907001384C4FEE0
:103F2000630C34092382F18600C383A7C18681C74D
:103F3000A2854E85829759C0DC481307300283C69C
:103F40000700639AE604984463F7E704944CBE962E
:103F500063E3E6049387070263E9E700A28517C5D8
:103F600000001305656FEFE0FFEC97C7FF1783C7ED
:103F7000A73E938584001385C9019DEBEF00906BEC
:103F80004A85EF10201E6244F240D2444249B249B1
:103F90000545056191A0A28517C500001305056AB6
:103FA000EFE05FE9EF200052EF10401B5DDD01A064
:103FB000EF00D0634A8505B74A8531BF13069005E7
:103FC00097C500009385457017C500001305C565AA
:103FD000EFE0DFF995B70000797106D622D426D23A
:103FE0004ECE4AD052CC56CA5AC85EC6AA89D926E5
:103FF0002A84EF10A0167C403844AA84F98FA5CB00
:104000008347440393F70702BDE3854A5D5A81A8BD
:104010008327890091C3E1178354090038487CC87D
:1040200093972400BA9783AB0700339B9A00EF1055
:10403000601363840B002685829BEF1020127C4066
:10404000134BFBFFAA84B3F767017CC04A85EFF0EE
:10405000EFF77C40384423284403F98F91C70329A4
:1040600044052685E31609FA8547638FF900225433
:10407000B2500259F249624AD24A424BB24B2685AB
:10408000925445616F10000E83474403BD9B230A81
:10409000F402F1BF00000000411122C42A8426C2AC
:1040A0004AC006C6EF10800B644803290405232A82
:1040B000040423280404EF10E00ABDC0A104138502
:1040C00084FFEFF0AFF0804021CC130584FFEFF0C8
:1040D000EFEF004031C4130584FFEFF02FEF0040F5
:1040E00021C0130584FFEFF06FEE004015C81305E3
:1040F00084FFEFF0AFED004005C4130584FFEFF03F
:10410000EFEC004011CC130584FFEFF02FEC0040E2
:1041100001C8130584FFEFF06FEB0440CDF0010000
:10412000630A09002244B24092444A85024941018F
:104130006FF08FAAB240224492440249410182802A
:10414000411131469305000217C50000130585593A
:1041500006C6EFF02FD123A0A18809C5B2400145C2
:10416000410182801306001F97C500009385055802
:1041700017C500001305051FEFE05FDFC5B700009E
:10418000411106C622C426C203A48186EF00107D19
:10419000AA842285EFF0DFC89147230AF4021305B1
:1041A0000406BD252285EFF03FA085476304F50294
:1041B0009387418798439306440194C354C358C8D6
:1041C0001CCC2685EF00107A2244B2409244410173
:1041D0006FF0DFAD8327C408E1FF2285EFF04FFCCD
:1041E000CDB70000411122C406C62A843DC58347CD
:1041F00044030947BD8B638EE7001306C02E97C5A5
:1042000000009385655F17C500001305A54FEFE01B
:10421000FFD52285EFF09F9C05E55448184CF957CF
:104220001CD8D8C29307440114C31CCC5CC8228597
:10423000EFF01FB82244B24041016FF03FA70100E8
:104240001306D02E97C500009385055B17C50000A7
:104250001305054FEFE09FD1C9B71306B02E97C5E0
:1042600000009385655917C500001305E53BEFE095
:10427000FFCFB5BF00000000797122D426D24AD00A
:104280004ECE52CC56CA5AC85EC606D62A84AE8BCB
:10429000328BB68A3A893E8AC284C68979CD630C4C
:1042A000090E5E8681452285EFF00FE193074401F8
:1042B0001CCC5CC852869305300223206403232261
:1042C000540323242403232644034A85EFC01FC23A
:1042D0005C5410544C500850F1173E96970600005D
:1042E000938646EAEF00D02B48CCFD4763EA970659
:1042F0008147230B9402A30A9402232C0402232C4B
:104300003405232E340523280402230A040223261D
:104310000408232804080147A28617060000130694
:10432000A6ECA28513050406952983A741882324BA
:104330000404232204042326040423280404232A37
:10434000040499C322858297B25022549254025990
:10435000F249624AD24A424BB24B014545618280E2
:104360001306E00997C500009385054F17C50000A7
:104370001305C542EFE09FBFA5BF1306E00E97C52A
:1043800000009385A54817C500001305E529EFE057
:10439000FFBDE31809F01306F00E97C500009385E2
:1043A000E54617C500001305E53DEFE03FBCD5BD70
:1043B0000000000003A5818682800000411122C414
:1043C00006C626C22A846308051083474403BD8BB2
:1043D000C1E32285EFF09F8041ED034764038547E9
:1043E000B397E7001CDC8947A30AE402230AF4021E
:1043F00045C82285EFF08FFE71E1834744030947EA
:10440000BD8B639BE702EF0070555448184C93072F
:104410004401AA84D8C214C31CCC5CC8130504068A
:10442000712B2685EF0010542285EFF07F9883A72B
:10443000818899C32285829783A7818699C3EFF0EB
:10444000FF86B2402244924401454101828001002E
:1044500017C500001305C5361306501197C5000097
:104460009385453EEFE09FB02285EFF02FF735D5DD
:104470001306601197C500009385C53C17C5000061
:104480001305052CEFE09FAE034764038547B39700
:10449000E7001CDC8947A30AE402230AF40231F88E
:1044A0001306E02B97C500009385453717C500001C
:1044B00013058517EFE09FAB2DBF01001306F02B0E
:1044C00097C500009385853517C50000130545275E
:1044D000EFE0DFA91DB71306401197C500009385D3
:1044E000653617C5000013052514EFE03FA8F1BDA0
:1044F00001112A8856C20145AE8AC28522CC26CA3D
:104500004AC84EC652C406CE328AB6843A89BE899B
:10451000EFF04FCE2A8445C12685EFE07FC061C50C
:104520001307440118CC58C826869305300223206F
:1045300054032322440308D444D4EFC03F9B5C546B
:1045400010544C500850F1173E9697060000938681
:1045500066C3EF00F00448CCFD4763E927078147B5
:10456000230B2403A30A2403232C0402232C340545
:10457000232E340523280402230A040223260408D8
:10458000232804080147A286170600001306C6C5A3
:10459000A28513050406192483A741882324040453
:1045A000232204042326040423280404232A0404C5
:1045B00099C322858297F24022856244D2444249BF
:1045C000B249224A924A0561828001001306E0093D
:1045D00097C500009385452817C500001305051CE5
:1045E000EFE0DF98ADBF22850144EFF06FD4E1B773
:1045F000411106C6EF00903683A7818603C74703A3
:104600000546AA863D8B6316C700D04B984F6319A9
:10461000E6003685EF001035B24001454101828049
:1046200058C210C303C757039386470194CF13168C
:104630003700138781B1D4CB3297504314C290CF47
:1046400054C3D8CBEF001032EFF04FE6F1B70000C3
:10465000411122C406C626C22A842DCD2285EFF040
:10466000EFD729E5834744030547BD8B6391E708EE
:10467000EF00D02E83474403AA842285C19B93E791
:104680002700230AF402EFF0AFF9130504063D26D4
:104690002685EF00302D83A7C1889DC7228582978C
:1046A0000145B240224492444101828013064029D0
:1046B00097C500009385C51717C500001305450869
:1046C000EFE0DF8A45B70100B24022449244014541
:1046D000410182801306302997C500009385451556
:1046E00017C50000130545F4EFE05F8885BF7D55D1
:1046F0004DBF0000411122C406C626C22A843DCD0A
:104700002285EFF0AFCD39E5834744030947BD8BE0
:104710006393E708EF0090245448184C9307440132
:10472000AA84D8C214C31CCC5CC81305040679241F
:104730002685EF0030232285EFF08FE783A781885D
:1047400085CB228582970145B240224492444101A3
:10475000828001001306F02B97C500009385050C9D
:1047600017C500001305C5FDEFE05F8071BF0100B4
:10477000B240224492440145410182801306E02B5D
:1047800097C500009385850917C500001305C5E985
:10479000EFE0CFFDB5B77D5545BF0000011122CC3C
:1047A00026CA4AC84EC652C456C206CE2A84AE8A0B
:1047B000328AB6893A89BE8415CD56862285A545AA
:1047C000EFF08F8FF998A304940093074401232EF0
:1047D00044012320340323222403F240232404022F
:1047E0001CCC5CC86244D2444249B249224A924A33
:1047F000056182801306C00B97C5000093850515DF
:1048000017C5000013054506EFE04FF67DB7000021
:10481000411122C406C62A842DC92285EFF00FBC9F
:10482000A547630EF5001306200D97C5000093857C
:10483000E51017C5000013056504EFE02FF322858E
:10484000EFF08FB615C5EF0070115448184C930760
:104850004401D8C214C31CCC5CC8EF00B010228540
:10486000EFF00F94B24022440145410182800100E3
:104870001306300D97C500009385450C17C5000041
:1048800013058503EFE08FEE7DBF1306100D97C56E
:1048900000009385A50A17C500001305E5FCEFE0AD
:1048A000EFECA5BF00000000411122C406C626C2DD
:1048B0002A846303050E2285EFF04FB2A547630EED
:1048C000F5001306501397C500009385250617C5FC
:1048D00000001305A5FAEFE06FE9EF0030081C4C6B
:1048E0005848930444015CC398C38347940004CCA4
:1048F00044C8F99BA304F400EF00D00683A7C18548
:1049000099C3228582975850B707008093C7E7FF65
:1049100063E7E706EFB01FA35C50AA971CD4EF0033
:10492000F00393874189CC436385F5081454370815
:1049300000801348E8FF01003E869C43D84B630586
:10494000D700158F6376E800E398B7FE3E869C4358
:10495000C4C35CC804C203479400938601899C4287
:104960001367170010CC8507A304E4009CC2EF0076
:10497000607FB24022449244014541018280130687
:10498000501497C50000938565FA17C500001305FC
:1049900065F5EFE0AFDDBDBF1306401397C500001E
:1049A0009385C5F817C50000130505ECEFE00FDC93
:1049B00019B79C412E8669BF00000000411122C436
:1049C00006C62A8435C12285EFF04FA1A547630EA4
:1049D000F5001306E01A97C50000938525F417C566
:1049E00000001305A5E9EFE06FD883479400858B9D
:1049F000A9CB83A7818599C322858297EF00007692
:104A00005448184C93074401D8C214C31CCC5CC84A
:104A1000EF004075834794000145F99BA304F4001F
:104A2000B2402244410182801306D01A97C500008B
:104A30009385C5EE17C50000130505E3EFE00FD31E
:104A400059B77D55F1BF0000411122C426C24AC0AA
:104A500006C6AA842E84328935C92685EFF00F98C0
:104A6000A547630EF5001306101D97C5000093853A
:104A7000A5E917C50000130565E0EFE02FCF8947D2
:104A8000630CF40263C0870215CC85476315F400FC
:104A9000DC502320F900B2402244924402490145EF
:104AA000410182808D47E318F4FE83C7940093E7A9
:104AB0002700A384F400C5B783C79400F59BA384A3
:104AC000F400D1BF83270900DCD0F1B71306001D25
:104AD00097C50000938545E317C500001305C5D8A9
:104AE000EFE0CFC89DBF0000797106D622D426D250
:104AF0004AD05AC84ECE52CC56CA5EC662C466C2AE
:104B00006AC093844189EFB0FF832A89812D804058
:104B10002A8B630E94104848B70C008093CCECFFAE
:104B20003305A940130DC4FE63E3AC108D4A254C38
:104B3000938BC18593890189138AC18921A80100BA
:104B400080406306940E5C48130DC4FE3309F9409F
:104B500063EF2C0D83270A0099C36A85829718405A
:104B60005C40144448445CC398C340C000C0829673
:104B7000EFB04FFD834754FF2A8913F73700F99BA5
:104B8000A30AF4FEE31E57FB630F0D0C6A85EFF0DA
:104B9000EF84630E85011306501397C500009385BB
:104BA000E5D817C50000130565CDEFE02FBC7D23C8
:104BB0005C4018405CC398C3834754FF40C000C0AA
:104BC000F99BA30AF4FE792B83A70B0099C36A858E
:104BD00082971C4863ECFC06EFB0CFF61C48AA97FE
:104BE0005CC8AD2BCC40638D9508544893874189B0
:104BF0003E869C43D84B6305D700158F63F6EC00C7
:104C0000E398B7FE3E869C43C0C31CC000C2034766
:104C100054FF83A7090050C0136717008507A30A34
:104C2000E4FE23A0F9003D2B8040E31E94F02254C3
:104C3000B25092540259F249624AD24AB24B224CC3
:104C4000924C024D5A85424B456129AB13065014D4
:104C500097C50000938585CD17C50000130585C84D
:104C6000EFE0CFB095BF1306401397C500009385C2
:104C7000E5CB17C50000130525BFEFE02FAF39B70F
:104C80009C40268651B7000093874189DCC39CC3B2
:104C90008280000082800000970200189382823692
:104CA0007390023403210500824273901234D6526D
:104CB000739002309240A2423243C2435244E244D3
:104CC000724582551256A2563257C2575258E25870
:104CD00072598649164AA64A364BC64B564CE64C84
:104CE000764D865D165EA65E365FC65F1301810750
:104CF00073002030130181F806C216C41AC61EC8FC
:104D000022CA26CC2ACE2ED032D236D43AD63ED89B
:104D100042DA46DC4ADECEC0D2C2D6C4DAC6DEC82B
:104D2000E2CAE6CCEACEEED0F2D2F6D4FAD6FED87B
:104D3000F322003096DA83A2018A23A02200F32214
:104D4000103416C0EF00001383A2418A03A10200B1
:104D5000824273901234D652739002309240A24233
:104D60003243C2435244E244724582551256A2561F
:104D70003257C2575258E25872598649164AA64AC3
:104D8000364BC64B564CE64C764D865D165EA65E9F
:104D9000365FC65F130181077300203000000000FA
:104DA0001106719A130886F837C7ADDEC28713075C
:104DB000F7EE98C3D8C398C7D8C798CBD8CB98CFAD
:104DC000D8CF98D3D8D393878702E314F6FE9167A0
:104DD000938707882324A6F82326D6F82322B6FA39
:104DE000232EF6FE42858280000000009387818A90
:104DF000984319E323A0A18A23A2B18A054798C347
:104E0000F32740F191EF371700D18327C7FF93E7CE
:104E10001700232EF7FE0F00F00F0F100000828006
:104E2000B71600D18A07B69798C30F00F00F0F107E
:104E30000000828023A0A18A23A2B18AF32740F137
:104E400091EF371700D18327C7FF93E71700232E71
:104E5000F7FE0F00F00F0F1000008280371700D10F
:104E60008A07BA97054798C30F00F00F0F1000008C
:104E700082800000F32740F181EF371700D18327AC
:104E8000C7FFF99B232EF7FE23A4018A828001002D
:104E9000371700D18A07BA97014798C323A4018A1C
:104EA0008280000097B7FF1783A78749B70600D114
:104EB00013070019B3D7E7024111138746001043C7
:104EC00032C2904232C418433AC612463247630493
:104ED000E600944236C4B2462247BA9733B7E70099
:104EE0003697F32640F1639B0616B70600D113866A
:104EF0008600FD550CC2B10698C21CC2B71700D27D
:104F000003C7E7011377E70F238FE70003C7E70124
:104F10001377F70F238FE700B70700D283C7070087
:104F20008583BD8B8DC793F7F70F91463E8763E767
:104F3000F614B71600D283C7F601B397E70093F7CC
:104F4000F70FB3D7E74093F7F70FA38FF6003717A4
:104F500000D28347D70193F7F70F93E71700A30E0B
:104F6000F7008347D70193F7E70FA30EF700B707C2
:104F700000D283C707008583BD8B8DCF93F7F70FD2
:104F800091463E8763EAF60E371600D28347F60154
:104F90009375F70FA146B397E70093F7F70FB3D7D1
:104FA000E7408D8E05473317D700D98F93F7F70F5A
:104FB000A30FF600B71700D203C7E7011377E70F77
:104FC000238FE70003C7E7011377F70F238FE7006D
:104FD00003C7D7011377F70F13671700A38EE700F6
:104FE00003C7E7001377E70F2387E70003C7E7004E
:104FF0001377F70F136717002387E700B70700D26F
:1050000083C707008583BD8B8DCF93F7F70F91463C
:105010003E8763E1F606371600D28347F6009375A4
:10502000F70FA146B397E70093F7F70FB3D7E74021
:105030008D8E05473317D700D98F93F7F70FA30746
:10504000F600371700D28347D70093F7F70F93E79F
:105050001700A306F700410182800100375600D1F6
:105060008E06B2967D5690C21386460018C29CC228
:1050700071B50100114745B7114739B7114755BD03
:1050800000000000011197B7FF1783A7672BB70631
:1050900000D113070019B3D7E70206CE13874600E5
:1050A000104332C2904232C418433AC612463247C5
:1050B0006304E600944236C4B246A2453386B70084
:1050C0003337F600369763F8E604F32740F19DC3C3
:1050D000B75600D18E07B697FD5694C39386470006
:1050E00098C290C3EFB0DFD5EFB08FA6F240056154
:1050F0006FB09FD8B70700D193868700FD558CC24B
:10510000B10798C390C2EFB0BFD3EFB06FA4F24025
:1051100005616FB07FD66314D700E3E8C5FA014696
:10512000B70600D190C21387460010C390C2732700
:1051300040F109EB13868600FD550CC2B10698C2FA
:105140001CC24DB7B75600D10E073697FD5614C393
:105150009306470090C21CC371B7000073750430FA
:105160008280000073100530828000000000000083
:10517000000000000000000000000000000000002F
:10518000731191345D7106C012C216C41AC61EC8CE
:105190002ACA2ECC32CE36D03AD23ED442DC46DEBB
:1051A000F2C0F6C2FAC4FEC673D0E57E7350F67E36
:1051B00073D0B67E732520348A85EF40B01DD2525D
:1051C0007390427CC25273901234B2527390223464
:1051D00082401242A2423243C2435245E2457246E5
:1051E00082561257A2576258F258064E964E264FD4
:1051F000B64F6161731191347300203000000000DC
:10520000731191345D7106C012C216C41AC61EC84D
:105210002ACA2ECC32CE36D03AD23ED442DC46DE3A
:10522000F2C0F6C2FAC4FEC673D0E57E7350F67EB5
:1052300073D0B67EF390D07E73700430D2527390E8
:10524000427CC25273901234B25273902234824024
:105250001242A2423243C2435245E245724682564E
:105260001257A2576258F258064E964E264FB64F26
:105270006161731191347300203001A000000000BF
:10528000411117B500001305257F06C6EFD09FBA60
:10529000B24001454101828000000000411106C674
:1052A000EFD09FC1B2400145410182800000000063
:1052B00059712145CAD0D2CC86D6A2D4A6D2CECEA0
:1052C000D6CAEFE0AFD72A8A1309450097C7000076
:1052D0009387C7D00A8717C80000130828D58843CA
:1052E000CC439047D44708C34CC310C754C7C10729
:1052F0004107E39607FF17B5000013052579EFC0B6
:10530000AFB1AA84EFE0DFB803244A00630C890040
:10531000130544FFEFC04FB063D3A400AA8400403C
:10532000E31889FEEFE0DFB8A14763C7970CE9C433
:1053300017B6000013068675A68517B5000013057D
:1053400065751384F4FFEFD0FFAE930714009D8BB7
:1053500097B9000093898976FD5AE9E74E85EFD029
:105360007FAD4E85EFD01FAD4E85EFD0BFAC4E85E3
:10537000EFD05FAC4E85EFD0FFAB4E85EFD09FAB4B
:105380004E85EFD03FAB61144E85EFD0BFAAE31737
:1053900054FD17B500001305A572EFD0BFA9032473
:1053A0004A0063008904CD4A17BA0000130A4A6C08
:1053B00097B90000938909731C442146A6854E8540
:1053C0005287930644FF63EDFA0A8A0798083E97CE
:1053D000032707FB83470401EFD0DFA50040E31D4F
:1053E00089FCB650265496540659F649664AD64A60
:1053F0000145656182800100A14417B600001306D3
:10540000E668A68517B500001305C5681D44EFD0F2
:105410007FA2930714009D8B97B900009389096AB6
:10542000FD5A8DDF05476385E7040947638EE70270
:105430000D476387E70211476380E70215476389D9
:10544000E7001947639FE7044E85EFD0BF9E7D14A8
:105450004E85EFD03F9E7D144E85EFD0BF9D7D14CD
:105460004E85EFD03F9D7D144E85EFD0BF9C7D14BF
:105470007D144E85EFD01F9CE31254EF19BF01003D
:1054800083470401EFD01F9B0040E31789F2B65019
:10549000265496540659F649664AD64A014565612E
:1054A00082804E85EFD01F997D1479BF79711D459B
:1054B00006D622D44AD056CA5AC826D24ECE52CC8C
:1054C0005EC662C466C2EFE06FB72A8917B50000F6
:1054D00013058562EFC04F94AA8AEFE07F9B0324F7
:1054E0004900130B4900630D8B000100130544FFB5
:1054F000EFC08F9263D3AA00AA8A0040E3188BFE04
:10550000EFE01F9BA14763CD5711638B0A1017B6BD
:1055100000001306665ED68517B500001305455ECC
:105520001384FAFFEFD01F91930714009D8B97B45B
:1055300000009384A458FD59639B07102685EFD083
:105540007F8F2685EFD01F8F2685EFD0BF8E2685D3
:10555000EFD05F8E2685EFD0FF8D2685EFD09F8D13
:105560002685EFD03F8D61142685EFD0BF8CE317E1
:1055700034FD17B500001305255BEFD0BF8B8324E6
:10558000490063019B0897BC0000938C2C5C97CB6F
:105590000000938BAB2917BA0000130AEA5C97B995
:1055A00000009389A95C17BC0000130C6C5C01001F
:1055B00083A8840203A8C4019C4C98486386080E03
:1055C000938644FF2146D6856685EFD0BF868050FE
:1055D000138904026319890005A00100EFD09F859B
:1055E0000040630B890052859305C4FEEFD09F8471
:1055F0001C404E85E314F9FE5E85EFD0BF838440E6
:10560000E3189BFAB250225492540259F249624A6A
:10561000D24A424BB24B224C924C014545618280AA
:10562000A14A17B600001306264DD68517B500000F
:105630001305054D1D44EFD0EFFF930714009D8B1C
:1056400097B4000093848447FD59E38907EE05472A
:105650006385E7040947638EE7020D476387E70226
:1056600011476380E70215476389E700194763968E
:10567000E7042685EFD00FFC7D142685EFD08FFB45
:105680007D142685EFD00FFB7D142685EFD08FFA91
:105690007D142685EFD00FFA7D147D142685EFD07A
:1056A0006FF9E31D34E9F1B58148938644FF214643
:1056B000D6856285EFD00FF899B72685EFD08FF7A2
:1056C0007D1445BF0111194506CE22CC26CA4AC811
:1056D00052C44EC656C2EFE06F962A8A17B5000034
:1056E0001305C54AEFB05FF3AA84EFE06FFA032415
:1056F0004A0013094A00630D89000100130544FFA5
:10570000EFB09FF163D3A400AA840040E31889FEA0
:10571000EFE00FFAA14763CF9716638D041617B613
:1057200000001306A646A68517B50000130585469A
:105730001384F4FFEFD00FF0930714009D8B97B9FB
:1057400000009389A937FD5A639D07164E85EFD057
:105750006FEE4E85EFD00FEE4E85EFD0AFED4E855C
:10576000EFD04FED4E85EFD0EFEC4E85EFD08FECC4
:105770004E85EFD02FEC61144E85EFD0AFEBE317E1
:1057800054FD17B500001305E543EFD0AFEA03243D
:105790004A006306890E97B900009389694503287A
:1057A00004015C485844930644FF2146A6854E8573
:1057B000EFD04FE800402146A6854E856301890C55
:1057C000032804015C485844930644FFEFD08FE659
:1057D00000402146A6854E856303890A03280401FB
:1057E0005C485844930644FFEFD0CFE40040214684
:1057F000A6854E8563058908032804015C48584442
:10580000930644FFEFD00FE300402146A6854E8566
:1058100063078906032804015C485844930644FF43
:10582000EFD04FE100402146A6854E8563098904EB
:10583000032804015C485844930644FFEFD08FDFEF
:1058400000402146A6854E85630B8902032804018A
:105850005C485844930644FFEFD0CFDD004021461A
:10586000A6854E85630D8900032804015C485844D1
:10587000930644FFEFD00FDC0040E31289F2F240C0
:105880006244D2444249B249224A924A01450561E2
:1058900082800100A14417B600001306262FA685BA
:1058A00017B500001305052F1D44EFD0AFD893079F
:1058B00014009D8B97B9000093894920FD5AE38716
:1058C00007E805476385E7040947638EE7020D474C
:1058D0006387E70211476380E70215476389E700A2
:1058E0001947639DE7024E85EFD0CFD47D144E85D6
:1058F000EFD04FD47D144E85EFD0CFD37D144E859D
:10590000EFD04FD37D144E85EFD0CFD27D147D14D0
:105910004E85EFD02FD2E31B54E3A5B54E85EFD0D3
:105920006FD17D14C9B700007971154506D622D410
:105930004AD056CA5EC626D24ECE52CC5AC862C48F
:1059400066C2EFD0BFEF2A8917B500001305052CFA
:10595000EFB09FCCAA8AEFE0AFD303244900930BAA
:105960004900638D8B000100130544FFEFB0DFCACF
:1059700063D3AA00AA8A0040E3988BFEEFE04FD3DE
:10598000A14763C5571763830A1617B600001306AD
:10599000E627D68517B50000130505281384FAFFFE
:1059A000EFD04FC9930714009D8B97B400009384E8
:1059B000E410FD59639307162685EFD0AFC72685FF
:1059C000EFD04FC72685EFD0EFC62685EFD08FC624
:1059D0002685EFD02FC62685EFD0CFC52685EFD000
:1059E0006FC561142685EFD0EFC4E31734FD17B5FA
:1059F000000013052524EFD0EFC303294900638875
:105A00002B0D17BC0000130C6C2417CB0000130BDC
:105A1000EBE117BA0000130A2A1597B90000938921
:105A2000E91497BC0000938CAC2301000324890087
:105A30001306890003578901930649FF8147630BC9
:105A4000861200408507BE856304860400408507F2
:105A500063008604004093872500630B86020040A4
:105A600093873500630686020040938745006301F3
:105A70008602004093875500630C860000409387A0
:105A8000650063078600004093877500E31B86FA74
:105A90002146D6856285EFD0EFB98324890063184B
:105AA000940039A8EFD00FB98440630B940052855D
:105AB0009385C4FEEFD00FB89C404E85E314F4FEEE
:105AC0005A85EFD02FB703290900E3912BF7B25085
:105AD000225492540259F249624AD24A424BB24B82
